:100000000C94867E0D94CB2D0D94A02D0D94752D02
:100010000D944A2D0D941F2D0D94F42C0D94C92C84
:100020000D949E2C0C94B77E0C94B77E0C94B77EE6
:100030000C94B77E0D94752B0C94B77E0C94B77E00
:100040000C94B77E0C94B77E0C94B77E0C94B77E5C
:100050000C94B77E0C94B77E0C94B77E0D94542C00
:100060000C94B77E0D94772A0D944E2A0C94B77E8B
:100070000C94B77E0C94B77E0C94B77E0C94B77E2C
:100080000C94B77E0C94B77E0C94B77E0C94B77E1C
:100090000C94B77E0C94B77E0C94B77E0D943F51B0
:1000A0000C94B77E0C94B77E0C94B77E0C94B77EFC
:1000B0000C94B77E0C94B77E0C94B77E0C94B77EEC
:1000C0000C94B77E0C94B77E0C94B77E0C94B77EDC
:1000D0000C94B77E0C94B77E0C94B77E0C94B77ECC
:1000E0000C94B77EDB84DE84E384EB84F684F684B0
:1000F000048504850485B8A575B585A685A617A8C9
:1001000075B51CAB51A9C9AA75B54FAC1DAD6BAE89
:100110006BAEB8A517B275B5B8A5C1AD41AF03A711
:10012000DBAF8CB017B270B1A3B29EB3A9B4BEB4AA
:10013000C5A9310123011901DF002D01F300FB00E6
:10014000DD001101CB000B0129011301F900F300BF
:10015000D50001011B012101150117011701F10053
:100160001501CF00FD002501150107010701C90098
:10017000C9002101FD00150121010701FD00170142
:100180000901FD00FD00FD00FD00FD00F700FD0080
:10019000FD000D943A480D94DD2A0D94584F0D94AE
:1001A00095470D9476270D947F280D94F52A0D948C
:1001B0000C4A0D940D4F0D94024C0D94D32A0D94BE
:1001C000BE2A0D94FA480D9437270D94FD4E0D94D8
:1001D0000B4C0D947E280D94294F0D94E4480D94FA
:1001E000214F0D94EA470D94022B0D94C3480D94B2
:1001F00064480D94EF2A0D94CF2A0D9478480D94FD
:1002000062270D94F92A0D9484270D9498610D941A
:100210001D480D944A480D94E12A0D9430490D94DF
:10022000FE4E0D94D92A0D94EB2A0D94A1480D94FD
:10023000D0470D94BA2A0D94FD2A0D9452230D94A3
:1002400000280D94B4470D94CB2A0D940F480D94BB
:1002500013600D94E72A0D94FB480D94C42A0D9465
:1002600003490D94C82A0D94BA27FFFFFFFFFFFF33
:10027000FFFFFFFFFFFFFFFFFFFFFFFFDFFFFFFFAE
:10028000FFFFDFFFDFFFFFFFFFFFFFFFFFFFBFFFFE
:100290005DF73DEF3DEF3CEF1CE77DF75DEF5DEF78
:1002A0005DEF5CEF7DF77DF79DF79DF7BDF7FEFFF6
:1002B000FFFFBEF7DFFFFFFFFFFFFFFFFFFFFFFFB7
:1002C000FFFFFFFFFFFFFFFFFFFFFFFFFFFFFFFF3E
:1002D000FFFFFFFFFFFFFFFFFFFFFFFFFFFFFFFF2E
:1002E000DFFFFFFFFFFFDFFFDFFFFFFFDFFF7EF727
:1002F0007EF75DEF1CE71CE71CE71CE7DBDE1CE775
:100300001CE71CE71CE71BE71BE7FBE6FBDEB9D697
:100310001ADF9DF7FFFFFFFFFFFFFFFFDFFFFFFF7C
:10032000FFFFFFFFFFFFFFFFFFFFFFFFFFFFFFFFDD
:10033000FFFFFFFFFFFFFFFFFFFFFFFFFFFFFFFFCD
:10034000FFFFFFFFDFFFFFFFFFFFFFFFFFFFFFFFDD
:100350009EF7FCE61CEF3DEF1CE71CE73CEF1CE7BB
:10036000FCE6FBE61BE71CE71CE71BE7DADEB9D679
:1003700099D637C657C6DADEDEF7FFFFFFFFFFFF6D
:10038000DFFFFFFFFFFFFFFFFFFFFFFFFFFFFFFF9D
:10039000FFFFFFFFFFFFFFFFFFFFFFFFFFFFFFFF6D
:1003A000FFFFFFFFFFFFFFFFFFFFFFFFFFFFFFFF5D
:1003B000FFFFDFFF5DEFDBDE1CE73DEF3CEF3DEFD6
:1003C0005DEF3DEF1CE7FBE61BE71BE71BE7FBE6EA
:1003D000DADE99D678CE37C616BE37C61BE7FFFFE2
:1003E000FFFFDFFFFFFFFFFFFFFFFFFFFFFFFFFF3D
:1003F000FFFFFFFFFFFFFFFFFFFFFFFFFFFFFFFF0D
:10040000FFFFFFFFFFFFFFFFFFFFFFFFFFFFFFFFFC
:10041000FFFFFFFFFFFFDFFF3CE79AD6DBE61CEFA5
:100420001CEF1CEF1CEF1CE7FBE6DBDEDADEDADE9E
:10043000BADE99DE79D658CE58CE58CE17C6D6BD7C
:1004400099D6BEF7DFFFDFFFFFFFFFFFFFFFFFFFD4
:10045000FFFFFFFFFFFFFFFFFFFFFFFFFFFFFFFFAC
:10046000FFFFFFFFFFFFFFFFFFFFFFFFFFFFFFFF9C
:10047000FFFFFFFFFFFFFFFFFFFFDFFF1CE79AD635
:10048000FBE63CEF1CEF1CE71CE7FBE6FBE6DADED5
:10049000DADEBADE99D679D658CE38CE37CE37C620
:1004A00037C6F6BD99CEDEFFFFFFBEF7FFFFFFFFA9
:1004B000FFFFFFFFFFFFFFFFFFFFFFFFFFFFFFFF4C
:1004C000FFFFFFFFFFFFFFFFFFFFFFFFFFFFFFFF3C
:1004D000FFFFFFFFFFFFFFFFFFFFDFFFFFFFDFFF6C
:1004E0001CE7BADEFBE63CEF3CEF1CEF1CEF1BE722
:1004F0001BE7DAE6DADEBADE99D678D658CE37CE02
:1005000017C6D6BD57C6F6BD79CEFEFFFFFFBFF7B3
:10051000FFFFFFFFFFFFFFFFFFFFFFFFFFFFFFFFEB
:10052000FFFFFFFFFFFFFFFFFFFFFFFFFFFFFFFFDB
:10053000FFFFFFFFFFFFFFFFFFFFFFFFFFFFDFFFEB
:10054000FFFFDFFF1CE79AD6FBE63CEF3CEF1BE723
:100550001BE71BE71BE7DADEDADEBADE99D678D6D0
:1005600037CEF6C5D6BDB5B557C6F6BD58CEDEFFFB
:10057000FFFFDFFFFFFFFFFFFFFFFFFFFFFFFFFFAB
:10058000FFFFFFFFFFFFFFFFFFFFFFFFFFFFFFFF7B
:10059000FFFFFFFFFFFFFFFFFFFFFFFFFFFFDFFF8B
:1005A000FFFFFFFFDFFFFFFF1CE7BADEFBE61BEFED
:1005B0001BEF1BEF1BEF1BEF1BE7FAE6DAE6B9DEDA
:1005C00078D637CE16CEF6C5D6BDF6BD16C6D6BD84
:1005D00058CEFFFFDEFFFFFFFFFFFFFFFFFFFFFF24
:1005E000FFFFFFFFFFFFFFFFFFFFFFFFFFFFFFFF1B
:1005F000FFFFFFFFFFFFFFFFFFFFFFFFFFFFFFFF0B
:10060000FFFFDFFFFFFFFFFFDFFFFFFF1CE7BADE9B
:10061000FBE61BEFFBE6FBE6FBE6FBE6DAE6DAE6EB
:10062000DADE99DE78D637CE16C6F6C5D5BDF6BD6C
:1006300037C6F6BD78CEFFFFDEFFFFFFDFFFFFFF0F
:10064000FFFFFFFFFFFFFFFFFFFFFFFFFFFFFFFFBA
:10065000FFFFFFFFFFFFFFFFFFFFFFFFFFFFFFFFAA
:10066000FFFFFFFFFFFFDFFFFFFFFFFFDFFFFFFFDA
:100670001CE79ADEDAE6FBEEFBE6FBE6FAE6FAE6D4
:10068000DAE6B9DE99DE78DE57D617CEF6C5D5C5DF
:10069000B5BDD6BD16C6D6BD58CEFFFFDEFFFFFFE7
:1006A000DFFFFFFFFFFFFFFFFFFFFFFFFFFFFFFF7A
:1006B000FFFFFFFFFFFFFFFFFFFFFFFFFFFFFFFF4A
:1006C000FFFFFFFFFFFFFFFFFFFFDFFFFFFFFFFF5A
:1006D000DFFFFFFF1CE779D6BADEFAE6FAE6FAE6B4
:1006E000FAE6FAE6DAE699DE98DE78D637CE16CE66
:1006F000D5C5B5BDB5BD94B5D6BDB5B558CEFFFF12
:10070000DEFFFFFFDFFFFFFFFFFFFFFFFFFFFFFF3A
:10071000FFFFFFFFFFFFFFFFFFFFFFFFFFFFFFFFE9
:10072000FFFFFFFFFFFFFFFFFFFFFFFFFFFFDFFFF9
:10073000FFFFFFFFDFFFFFFF1CE779D6B9DEDAE638
:10074000FAE6DAE6DAE6DAE6B9DE99DE98DE78D6B7
:1007500037CEF6C5D5C594BD94BD74ADD5B5B5B588
:1007600058CEFFFFDFFFFFFFDFFFFFFFFFFFFFFFB1
:10077000FFFFFFFFFFFFFFFFFFFFFFFFFFFFFFFF89
:10078000FFFFFFFFFFFFFFFFFFFFFFFFFFFFFFFF79
:10079000FFFFDFFFFFFFFFFFDFFFFFFF1CE799DE2B
:1007A000DAE61BEFFBEEFAE6DAE6B9E699DE98DE6A
:1007B00078D657D616CED5C594BD74B553B574AD9D
:1007C000D5B5B5B578CEFFFFDFFFFFFFDFFFFFFF39
:1007D000FFFFFFFFFFFFFFFFFFFFFFFFFFFFFFFF29
:1007E000FFFFFFFFFFFFFFFFFFFFFFFFFFFFFFFF19
:1007F000FFFFFFFFFFFFDFFFFFFFFFFFDFFFFFFF49
:100800001CE737CE78D6B9DEB9DEB9DEB9DE98DEC0
:1008100078D657D637CEF6C5B5BD73B532AD12AD65
:10082000F1A412A574AD95AD58C6FFFFFFFFFFFF01
:10083000DFFFFFFFFFFFFFFFFFFFFFFFFFFFFFFFE8
:10084000FFFFFFFFFFFFFFFFFFFFFFFFFFFFFFFFB8
:10085000FFFFFFFFFFFFFFFFFFFFDFFFFFFFFFFFC8
:10086000DFFFFFFF1BE754B594C5F4CD14D614DEAB
:1008700034DE14DEF3DDD3D5D2D591CD50C50FB51E
:10088000CEAC8DA46EA48F9C11A532AD16C6FFFF11
:10089000FFFFFFFFFFFFFFFFFFFFFFFFFFFFFFFF68
:1008A000FFFFFFFFFFFFFFFFFFFFFFFFFFFFFFFF58
:1008B000FFFFFFFFFFFFFFFFFFFFFFFFFFFFFFFF48
:1008C000FFFFFFFFDFFFBEF77DF74B7BEC9BE99B54
:1008D000AABC47BC67C467CC68D4C9D4C9D4E8D41F
:1008E000E7D4E8CCC8CCC9CCCBCC4FCD71C54D94A6
:1008F00077D6FEFF9DF7FFFFFFFFFFFFFFFFFFFF24
:10090000FFFFFFFFFFFFFFFFFFFFFFFFFFFFFFFFF7
:10091000FFFFFFFFFFFFFFFFFFFFFFFFFFFFFFFFE7
:10092000FFFFFFFFFFFFFFFFDFFFBEF79DFF2E9CD6
:10093000CA9B28B4E9D4A6D4C6E4A6E4A6ECE6ECA7
:1009400006ED25ED45ED45ED67ED68ED6BE58FDDD9
:1009500050C56DA4F8EEFEFFDEF7FFFFFFFFFFFFBF
:10096000FFFFFFFFFFFFFFFFFFFFFFFFFFFFFFFF97
:10097000FFFFFFFFFFFFFFFFFFFFFFFFFFFFFFFF87
:10098000FFFFFFFFFFFFFFFFFFFFFFFFDFFFDFFFB7
:10099000DEFF11B5488B48B4C8CCE6DCE5E4C5E41D
:1009A000C5EC06F525F545ED64EDA5F5A7F5A9F52A
:1009B000ACEDF0E50FBDAEA49BFFFEFFFFFFFFFF18
:1009C000FFFFFFFFFFFFFFFFFFFFFFFFFFFFFFFF37
:1009D000FFFFFFFFFFFFFFFFFFFFFFFFFFFFFFFF27
:1009E000FFFFFFFFFFFFFFFFFFFFFFFFFFFFDFFF37
:1009F000DFFFFFFFFEFFD4CDE67A28ACA6C405DDFD
:100A000004E5C4E4E4EC45F565F584F5A4F5A4ED4E
:100A1000A6EDA7F5AAEDD0DDADAC10B5FDFFDDFF6D
:100A2000FFFFFFFFFFFFFFFFFFFFFFFFFFFFFFFFD6
:100A3000FFFFFFFFFFFFFFFFFFFFFFFFFFFFFFFFC6
:100A4000FFFFFFFFFFFFFFFFFFFFFFFFFFFFFFFFB6
:100A5000FFFFFFFFDFFFFFFFFEFFD8EE478327A466
:100A6000A6C426DD24E504ED24F585FDA4F5A3F553
:100A7000C3F5E4F5E5F5C7F5AAEDAFD54D9CB2C5D4
:100A8000FDFFDDFFFFFFFFFFFFFFFFFFFFFFFFFF9A
:100A9000FFFFFFFFFFFFFFFFFFFFFFFFFFFFFFFF66
:100AA000FFFFFFFFFFFFFFFFFFFFFFFFFFFFFFFF56
:100AB000FFFFFFFFFFFFFFFFFFFFFFFFFEFF7BFFCB
:100AC0000B9CC69BA6BC46DD44E503E544F584F5D6
:100AD000A3F5C3F5E3F503F605F6E7F5EBED8FD5E2
:100AE0006D9C96DEFDFFFEFFFFFFFFFFFFFFFFFF98
:100AF000FFFFFFFFFFFFFFFFFFFFFFFFFFFFFFFF06
:100B0000FFFFFFFFFFFFFFFFFFFFFFFFFFFFFFFFF5
:100B1000FFFFFFFFFFFFFFFFFFFFFFFFFFFFFFFFE5
:100B2000DEFFDDFFEFB4858BA6BC26DD44E523E5C3
:100B300084F583F5A3F5C2F502F604F625F607FE63
:100B40002BF68FCD8EA47AFFFDFFFFFFFFFFFFF78F
:100B5000FFFFFFFFFFFFFFFFFFFFFFFFFFFFFFFFA5
:100B6000FFFFFFFFFFFFFFFFFFFFFFFFFFFFFFFF95
:100B7000FFFFFFFFFFFFFFFFFFFFFFFFFFFFFFFF85
:100B8000FFFFDFFFBEFFFEFFB3CD658BA7BC46DDD9
:100B900065E543EDA4FDC4FDE4FD03F623F645F64B
:100BA00046FE49FE4CF66FC5AFA4FDFFBDFFFFFF3B
:100BB000DFF7BEF7FFFFFFFFFFFFFFFFFFFFFFFFB6
:100BC000FFFFFFFFFFFFFFFFFFFFFFFFFFFFFFFF35
:100BD000FFFFFFFFFFFFFFFFFFFFFFFFFFFFFFFF25
:100BE000FFFFFFFFFFFFFFFFFFFFBEFFF9F6678B71
:100BF00026AC88DDA6ED65EDC5FD05FE04FE23F6F9
:100C000024F645F627F629FE6EF68CACF4CDFDFFF2
:100C1000BDF7FFFFFFFFFFFFDFF7FFFFFFFFFFFF56
:100C2000FFFFFFFFFFFFFFFFFFFFFFFFFFFFFFFFD4
:100C3000FFFFFFFFFFFFFFFFFFFFFFFFFFFFFFFFC4
:100C4000FFFFFFFFFFFFFFFFFFFFFFFFFFFFDFFFD4
:100C50003BFFE99326A468DDA6ED85EDC5FD05FE05
:100C600025FE24F645F646F648F64AF64EF68DACD5
:100C700036CEFEFFBDF7FFFFFFF7FFFFDFF7FFFFF9
:100C8000FFFFFFFFFFFFFFFFFFFFFFFFFFFFFFFF74
:100C9000FFFFFFFFFFFFFFFFFFFFFFFFFFFFFFFF64
:100CA000FFFFFFFFFFFFFFFFFFFFFFFFFFFFFFFF54
:100CB000FFFFDFFF9DFF8DAC27A448D5A7EDC6F54C
:100CC000E6F526FE45FE65FE66F667F669F64CF625
:100CD0002FEEADAC98DEFEFFDEFFFFFFDFF7FFFF7C
:100CE000FFFFFFFFFFFFFFFFFFFFFFFFFFFFFFFF14
:100CF000FFFFFFFFFFFFFFFFFFFFFFFFFFFFFFFF04
:100D0000FFFFFFFFFFFFFFFFFFFFFFFFFFFFFFFFF3
:100D1000FFFFFFFFFFFFBFFFDFFF2FBD07A427CDB2
:100D2000C7EDE7F506FE26FE66FE86FE87FE88FE18
:100D30008AFE4DF60FE6AEAC1AE7FEFFFFFFFFFF9F
:100D4000DFF7FFFFFFFFFFFFFFFFFEFFFEFFFFFFDD
:100D5000FFFFFFFFFFFFFFFFFFFFFFFFFFFFFFFFA3
:100D6000FFFFFFFFFFFFFFFFFFFFFFFFFFFFFFFF93
:100D7000FFFFFFFFFFFFFFFFFFFF9FFFDFFFB1C58B
:100D8000E69B27CDE7ED07F646FE46FE86FEA6FE6D
:100D9000A7FEA9FEABFE4DF6EFE5CEAC7CF7FFFF5C
:100DA000FFFFFFFFDFF7FFFFFFFFFFFFFFFFFEFF7C
:100DB000FEFFFFFFFFFFFFFFFFFFFFFFFFFFFFFF44
:100DC000FFFFFFFFFFFFFFFFFFFFFFFFFFFFFFFF33
:100DD000FFFFFFFFFFFFFFFFFFFFFFFFFFFF9FFF83
:100DE000BEFFF2D5069C47CD07EE27F666FE66FEEF
:100DF000A6FEC7FEA7FEA9FEACFE4DF6EFDDCFAC0A
:100E0000DDFFFEFFFFFFFFFFFFF7FFFFFFFFFFFF1D
:100E1000FFFFFEFFFEFFFFFFFFFFFFFFFFFFFFFFE4
:100E2000FFFFFFFFFFFFFFFFFFFFFFFFFFFFFFFFD2
:100E3000FFFFFFFFFFFFFFFFFFFFFFFFFFFFFFFFC2
:100E4000FFFFBFFFBEFF33D6069C67D507EE26F631
:100E500066FE86FEC6FEC6FEA7FEA9FEACFE4EF6E8
:100E6000CFDDCFA4FEFFBEF7FFFFFFFFFFFFFFFFB9
:100E7000FFFFFFFFFFFFFEFFFEFFFFFFFFFFFFFF84
:100E8000FFFFFFFFFFFFFFFFFFFFFFFFFFFFFFFF72
:100E9000FFFFFFFFFFFFFFFFFFFFFFFFFFFFFFFF62
:100EA000FFFFFFFFFFFFFFFFDDFF73DE279C88D5FD
:100EB00007EE06F666FE86FEC7FEC7FEA7F6A9F693
:100EC000CCFE6DF6CFDDCFACFEFF9DF7FFFFFFFF41
:100ED000FFFFFFFFFFFFFFFFFFFFFFFFFFFFFFFF22
:100EE000FFFFFFFFFFFFFFFFFFFFFFFFFFFFFFFF12
:100EF000FFFFFFFFFFFFFFFFFFFFFFFFFFFFFFFF02
:100F0000FFFFFFFFFFFFFFFFFFFFDFFFFDFF53D6E8
:100F1000E69328CD08EE47FE46FE66FEA7FE67F67E
:100F2000A9FEABF68CF6AEF6AED510ADDEFFFFFF38
:100F3000FFFFBEF7FFFFFFFFFFFFFFFFFFFFFFFF0A
:100F4000FFFFFFFFFFFFFFFFFFFFFFFFFFFFFFFFB1
:100F5000FFFFFFFFFFFFFFFFFFFFFFFFFFFFFFFFA1
:100F6000FFFFFFFFFFFFFFFFFFFFFFFFFFFFDEFFB2
:100F7000FDFF54D6E79328CDE9ED47FE46FE86FEF9
:100F8000A7FE67FEAAFE8BF68CF6AEF6CDD510ADA9
:100F9000DEFFFFFFFFFFDEFFFFFFDFFFFFFFFFFFC3
:100FA000FFFFFFFFFFFFFFFFFFFFFFFFFFFFFFFF51
:100FB000FFFFFFFFFFFFFFFFFFFFFFFFFFFFFFFF41
:100FC000FFFFFFFFFFFFFFFFFFFFFFFFFFFFFFFF31
:100FD000FFFFDEF7FEFF75D6089429CDE8ED47FE4A
:100FE00066FE86FEA7FE87FEA9FEABF68CF6CEFE59
:100FF000EED510ADDDFFFFFFFFFFDEFFFFFFDFFFE0
:10100000FFFFFFFFFFFFFFFFFFFFFFFFFFFFFFFFF0
:10101000FFFFFFFFFFFFFFFFFFFFFFFFFFFFFFFFE0
:10102000FFFFFFFFFFFFFFFFFFFFFFFFFFFFFFFFD0
:10103000FFFFFFFFFFFFDFF7FEFF55D6089429CD26
:10104000E8E547FE86FE85FEA6FE87FEC9FE8AF617
:101050008CF6CEFEEEDDEFACBDFFFFFFFFFFDEFF47
:10106000FFFFDFFFFFFFFFFFFFFFFFFFFFFFFFFFB0
:10107000FFFFFFFFFFFFFFFFFFFFFFFFFFFFFFFF80
:10108000FFFFFFFFFFFFFFFFFFFFFFFFFFFFFFFF70
:10109000FFFFFFFFFFFFFFFFFFFFDFF7FFFF34D67C
:1010A000089449CDE8E546FE86FE85FEA6FE86FE4E
:1010B000A9FE8AF68BF6CDFEEEDDCFA49DF7FEFFEE
:1010C000FFFFDEFFFFFFDFFFFFFFFFFFFFFFFFFF71
:1010D000FFFFFFFFFFFFFFFFFFFFFFFFFFFFFFFF20
:1010E000FFFFFFFFFFFFFFFFFFFFFFFFFFFFFFFF10
:1010F000FFFFFFFFFFFFFFFFFFFFFFFFFFFFDFFF20
:10110000FEFF14CEE89349CDE8E526F685FE64FEA1
:10111000A5FE86FEA8FE69F66AF6ADFEEDE5AEA474
:101120009CF7FEFFFFFFDEFFFFFFDFFFFFFFFFFF7C
:10113000FFFFFFFFFFFFFFFFFFFFFFFFFFFFFFFFBF
:10114000FFFFFFFFFFFFFFFFFFFFFFFFFFFFFFFFAF
:10115000FFFFFFFFFFFFFFFFFFFFFFFFFFFFFFFF9F
:10116000FFFFDFFFBDFFD3CDC79349CDE8ED26F6E6
:1011700065FE44FE85FE66FE87FE48F64AFE8CFE4E
:10118000EDE58D9C7CF7DEFFFFFFDEFFFFFFDFFF5D
:10119000FFFFFFFFFFFFFFFFFFFFFFFFFFFFFFFF5F
:1011A000FFFFFFFFFFFFFFFFFFFFFFFFFFFFFFFF4F
:1011B000FFFFFFFFFFFFFFFFFFFFFFFFFFFFFFFF3F
:1011C000FFFFFFFFFFFFDFFFBDFFB2CDA79349CDBC
:1011D000E8ED06F645FE44FE86FE66FE88FE48FE05
:1011E0004AFE8CFEEDE56D9C5CEFDEFFFFFFDEFF4F
:1011F000FFFFDFFFFFFFFFFFFFFFFFFFFFFFFFFF1F
:10120000FFFFFFFFFFFFFFFFFFFFFFFFFFFFFFFFEE
:10121000FFFFFFFFFFFFFFFFFFFFFFFFFFFFFFFFDE
:10122000FFFFFFFFFFFFFFFFFFFFDFFFFEFFEFB44A
:10123000A79309CDA8ED48FE26FE46FE46FE47FED2
:1012400048FE49FE4BFE4BFE2FF68D9CFAE6FEFF54
:10125000FFFFFFFFFFFFFFFFFFFFFFFFFFFFFFFF9E
:10126000FFFFFFFFFFFFFFFFFFFFFFFFFFFFFFFF8E
:10127000FFFFFFFFFFFFFFFFFFFFFFFFFFFFFFFF7E
:10128000FFFFFFFFFFFFFFFFFFFFFFFFFFFFDFFF8E
:10129000DDFFEFB409A40ACDAAED09FEE7FD07FEC4
:1012A00048FE49FE4AFE4BFE4CFE0CFE0FEE4D94EE
:1012B00099D6DEFFFEFFFFFFFFFFFFFFFFFFFFFFEF
:1012C000FFFFFFFFFFFFFFFFFFFFFFFFFFFFFFFF2E
:1012D000FFFFFFFFFFFFFFFFFFFFFFFFFFFFFFFF1E
:1012E000FFFFFFFFFFFFFFFFFFFFFFFFFFFFFFFF0E
:1012F000FFFFBEFF3BF7AB8B678B07ACE9CC28DD6C
:1013000068E567DD88E5A9E569DD49D52AD50AD50F
:10131000EBC42D9437CEDEFFDEFFFFFFFFFFFFFFA4
:10132000FFFFFFFFFFFFFFFFFFFFFFFFFFFFFFFFCD
:10133000FFFFFFFFFFFFFFFFFFFFFFFFFFFFFFFFBD
:10134000FFFFFFFFFFFFFFFFFFFFFFFFFFFFFFFFAD
:10135000FFFFFFFFFFFFFFFF7CF78B83AA8BA89B9C
:1013600089BC48BC88C409CD2ACD0ACDEAC4EAC4E8
:101370002BC50BC5CCB40D8CD6BDFEFFDEFFFFFF29
:10138000FFFFFFFFFFFFFFFFFFFFFFFFFFFFFFFF6D
:10139000FFFFFFFFFFFFFFFFFFFFFFFFFFFFFFFF5D
:1013A000FFFFFFFFFFFFFFFFFFFFFFFFFFFFFFFF4D
:1013B000FFFFFFFFFFFFFFFFFFFFBEF779CE2B6BA5
:1013C0004E9CAEB46FCD4ECD8FD56FD5AFD5B0D5C9
:1013D000D0CD12DE53E611DE70C5AC7B33ADFEFF1F
:1013E000DEFFFFFFFFFFFFFFFFFFFFFFFFFFFFFF2E
:1013F000FFFFFFFFFFFFFFFFFFFFFFFFFFFFFFFFFD
:10140000FFFFFFFFFFFFFFFFFFFFFFFFFFFFFFFFEC
:10141000FFFFFFFFFFFFFFFFFFFFFFFFFFFFFFF7E4
:1014200099C6CE7B32ADD4CD76E618FFDBFF59FFEF
:10143000BBFFDBFFBBFFDBFFFBFF58F796DE4B6B11
:101440007094DEFFBDF7FFFFDFFFFFFFFFFFFFFF31
:10145000FFFFFFFFFFFFFFFFFFFFFFFFFFFFFFFF9C
:10146000FFFFFFFFFFFFFFFFFFFFFFFFFFFFFFFF8C
:10147000FFFFFFFFFFFFFFFFFFFFFFFFFFFFFFFF7C
:10148000FFFFFFF77ABEEF73718C50948D8370A4C9
:1014900074C5F6D558D658D6D6BD94B5B4B552ADA8
:1014A000B0944B6B4F8CFEFFBEF7FFFFDFFFFFFFDB
:1014B000FFFFFFFFFFFFFFFFFFFFFFFFFFFFFFFF3C
:1014C000FFFFFFFFFFFFFFFFFFFFFFFFFFFFFFFF2C
:1014D000FFFFFFFFFFFFFFFFFFFFFFFFFFFFFFFF1C
:1014E000FFFFFFFFFFFFFFF79AC6D39434A5919447
:1014F000695ACB6A6D7B3094729C518C8E734C63AD
:10150000AD73EE7BCD738D73708CFFFFFFFFFFFF1C
:10151000DFFFFFFFFFFFFFFFFFFFFFFFFFFFFFFFFB
:10152000FFFFFFFFFFFFFFFFFFFFFFFFFFFFFFFFCB
:10153000FFFFFFFFFFFFFFFFFFFFFFFFFFFFFFFFBB
:10154000FFFFFFFFFFFFFFFFFFFFFFFFBEEFDBD649
:1015500096B591940F842F8C7094B5BD58D678D6DB
:1015600095B513A554AD74AD34A5B6BDFBDEFFFF34
:10157000FFFFFFFFFFFFFFFFBEF7FFFFFFFFFFFFC4
:10158000FFFFFFFFFFFFFFFFFFFFFFFFFFFFFFFF6B
:10159000FFFFFFFFFFFFFFFFFFFFFFFFFFFFFFFF5B
:1015A000FFFFFFFFFFFFFFFFFFFFFFFFFFFFBEF794
:1015B000DFF7DFFFBEF77DEF7CEF9DF7DDFFFAE69B
:1015C0007CF79CF73BEF5CEFBDFFFEFFBEFF7DEFBE
:1015D000FFFFFFFFFFFFDFFFFFFFFFFFDFFFFFFF5B
:1015E000FFFFFFFFFFFFFFFFFFFFFFFFFFFFFFFF0B
:1015F000FFFFFFFFFFFFFFFFFFFFFFFFFFFFFFFFFB
:10160000FFFFFFFFFFFFFFFFFFFFFFFFFFFFFFFFEA
:10161000DEFFFFFFB8DFC98EFEFFFFFFFFFFFFFF0A
:10162000FFFFFFFFFFFFFFFFFFFFFFFFFFFFFFFFCA
:10163000FFFFFFFFFFFFFFFFFFFFFFFFFFFFFFFFBA
:10164000FFFFFFFFFFFFFFFFFFFFFFFFFFFFFFFFAA
:10165000FFFFFFFFFFFFFFFFFFFFFFFFFFFFFFFF9A
:10166000FFFFFFFFFFFFFFFFFFFFFFFFFFFFFFFF8A
:10167000FFFFFFFFFFFFFFFFFFFFFFFFFFFFFFFF7A
:10168000FFFFFFFFFFFFFFFFFFFFFFFFFFFFFFFF6A
:10169000FFFFD9E7A67EA67EFEFFFFFFFFFFFFFF4D
:1016A000FFFFFFFFFFFFFFFFFFFFFFFFFFFFFFFF4A
:1016B000FFFFFFFFFFFFFFFFFFFFFFFFFFFFFFFF3A
:1016C000FFFFFFFFFFFFFFFFFFFFFFFFFFFFFFFF2A
:1016D000FFFFFFFFFFFFFFFFFFFFFFFFFFFFFFFF1A
:1016E000FFFFFFFFFFFFFFFFFFFFFFFFFFFFFFFF0A
:1016F000FFFFFFFFFFFFFFFFFFFFFFFFFFFFFFFFFA
:10170000FFFFFFFFFFFFFFFFFFFFFFFFFFFFFFFFE9
:1017100095CF02666034667EFEF7FFFFFFFFFFFF96
:10172000FFFFFFFFFFFFFFFFFFFFFFFFFFFFFFFFC9
:10173000FFFFFFFFFFFFFFFFFFFFFFFFFFFFFFFFB9
:10174000FFFFFFFFFFFFFFFFFFFFFFFFFFFFFFFFA9
:10175000FFFFFFFFFFFFFFFFFFFFFFFFFFFFFFFF99
:10176000FFFFFFFFFFFFFFFFFFFFFFFFFFFFFFFF89
:10177000FFFFFFFFFFFFFFFFFFFFFFFFFFFFFFFF79
:10178000FFFFFFFFFFFFFFFFFFFFFFFFFFFF2FAF89
:10179000604DA55CA65C2576FEFFFFFFFFFFFFFF07
:1017A000FFFFFFFFFFFFFFFFFFFFFFFFFFFFFFFF49
:1017B000FFFFFFFFFFFFFFFFFFFFFFFFFFFFFFFF39
:1017C000FFFFFFFFFFFFFFFFFFFFFFFFFFFFFFFF29
:1017D000FFFFFFFFFFFFFFFFFFFFFFFFFFFFFFFF19
:1017E000FFFFFFFFFFFFFFFFFFFFFFFFFFFFFFFF09
:1017F000FFFFFFFFFFFFFFFFFFFFFFFFFFFFFFFFF9
:10180000FFFFFFFFFFFFFFFFFFFFDCF7CA96003D72
:10181000A76439D78A7DE46DFEFFFFFFFFFFFFFF5E
:10182000FFFFFFFFFFFFFFFFFFFFFFFFFFFFFFFFC8
:10183000FFFFFFFFFFFFFFFFFFFFFFFFFFFFFFFFB8
:10184000FFFFFFFFFFFFFFFFFFFFFFFFFFFFFFFFA8
:10185000FFFFFFFFFFFFFFFFFFFFFFFFFFFFFFFF98
:10186000FFFFFFFFFFFFFFFFFFFFFFFFFFFFFFFF88
:10187000FFFFFFFFFFFFFFFFFFFFFFFFFFFFFFFF78
:10188000FFFFFFFFFFFFFFFFB9DF4676A03C2A7D89
:10189000F7CE38D7486DE46DFEFFFFFFFFFFFFFF77
:1018A000FFFFFFFFFFFFFFFFFFFFFFFFFFFFFFFF48
:1018B000FFFFFFFFFFFFFFFFFFFFFFFFFFFFFFFF38
:1018C000FFFFFFFFFFFFFFFFFFFFFFFFFFFFFFFF28
:1018D000FFFFFFFFFFFFFFFFFFFFFFFFFFFFFFFF18
:1018E000FFFFFFFFFFFFFFFFFFFFFFFFFFFFFFFF08
:1018F000FFFFFFFFFFFFFFFFFFFFFFFFFFFFFFFFF8
:10190000FFFFFFFFFFFF54C7C25D8044AD8DD5C60A
:1019100094B6B5BE276DE56DFFFFFFFFFFFFFFFF2C
:10192000FFFFFFFFFFFFFFFFFFFFFFFFFFFFFFFFC7
:10193000FFFFFFFFFFFFFFFFFFFFFFFFFFFFFFFFB7
:10194000FFFFFFFFFFFFFFFFFFFFFFFFFFFFFFFFA7
:10195000FFFFFFFFFFFFFFFFFFFFFFFFFFFFFFFF97
:10196000FFFFFFFFFFFFFFFFFFFFFFFFFFFFFFFF87
:10197000FFFFFFFFFFFFFFFFFFFFFFFFFFFFFFFF77
:10198000FFFFFFFFEFA6404DA24CEE9593B651A688
:1019900051A672B6266DC2650FAFF0AEF0AEF0AED6
:1019A000F0AEF0AEF0AEF0AEF0AEF0AEF0AEF0AE47
:1019B000F0AEF0AEF0AEF0AEF0AEF0AEF0AEF0AE37
:1019C000F0AEF0AEF0AEF0AEF0AEF0AEF0AEF0AE27
:1019D000F0AEF0AEF0AEF0AEF0AEF0AEF0AEF0AE17
:1019E000F0AEF0AEF0AEF0AEF0AEF0AEF0AEF0AE07
:1019F00012BFFFFFFFFFFFFFFFFFFFFFFFFFFFFF24
:101A0000DCEF6A8E0045E55C0E9630A60F9E0F9EB9
:101A10000F9E30A60665C044E044E044E044E04444
:101A2000E044E044E044E044E044E044E044E04496
:101A3000E044E044E044E044E044E044E044E04486
:101A4000E044E044E044E044E044E044E044E04476
:101A5000E044E044E044E044E044E044E044E04466
:101A6000E044E044E044E044E044E044C044204535
:101A7000E055FFFFFFFFFFFFFFFFFFFFFFFF78DFE6
:101A8000C56DE0442665ED8DED8DCC8DEC8DEC8D36
:101A9000EC8DEC8DCB858A7D8A7D8A7D8A7D8A7DE1
:101AA0008A7D8A7D8A7D8A7D8A7D8A7D8A7D8A7DFE
:101AB0008A7D8A7D8A7D8A7D8A7D8A7D8A7D8A7DEE
:101AC0008A7D8A7D8A7D8A7D8A7D8A7D8A7D8A7DDE
:101AD0008A7D8A7D8A7D8A7D8A7D8A7D8A7D8A7DCE
:101AE0008A7D8A7D8A7D8A7D8A7DAA7D6975E14CA1
:101AF000015EFFFFFFFFFFFFFFFFFFFF13BF625508
:101B0000E044476DCA85AA7DAA7DAA7DAA7DAA7DEB
:101B1000AA7DAA7DAA85CA85CA85CA85CA85AA85DD
:101B2000CA85CA85CA85CA85CA85CA85CA85CA853D
:101B3000CA85CA85CA85CA85CA85CA85CA85CA852D
:101B4000CA85CA85CA85CA85CA85CA85CA85CA851D
:101B5000CA85CA85CA85CA85CA85CA85CA85CA850D
:101B6000CA85CA85CA85CA85AA85CB85897D01555E
:101B7000C155FFFFFFFFFFFFFFFF8E9E204DE14C91
:101B8000666D8875677587758775877587758775BD
:101B900087758775877567756775877567756775E5
:101BA00067756775677567758775877587756775F5
:101BB0008775677587758775877587758775677585
:101BC00067758775877567756775677567756775F5
:101BD00067756775877567758775677567756775E5
:101BE000677587756775677567758775666D014D6C
:101BF000A155DFFFFFFFBCEFE97D004502554565BC
:101C00006565446545654565456545654565456565
:101C10004565456545654565456545654565456574
:101C20004565456545654565456545654565456564
:101C30004565456545654565456545654565456554
:101C40004565456545654565456545654565456544
:101C50004565456545654565456545654565456534
:101C60004565456545654565456545654465214D61
:101C70008155FFFF58D7646500450155225522550F
:101C8000225522552255225522552255225522559C
:101C9000225522552255225522552255225522558C
:101CA000225522552255225522552255225522557C
:101CB000225522552255225522552255225522556C
:101CC000225522552255225522552255225522555C
:101CD000225522552255225522552255225522554C
:101CE0002255225522552255225522552255214D45
:101CF00061550C962255204D2155214D204D214DE9
:101D0000204D214D214D214D214D214D214D214D64
:101D1000214D214D214D214D214D214D214D214D53
:101D2000214D214D214D204D214D204D204D214D46
:101D3000204D204D214D214D204D204D214D204D38
:101D4000214D214D214D214D214D214D214D204D24
:101D5000214D204D204D214D204D214D214D214D16
:101D6000204D204D214D204D214D204D214D214D07
:101D70004155B3B6656D00456155414D41554155DD
:101D800041554155415541554155415541554155A3
:101D90004155415541554155415541554155415593
:101DA0004155415541554155415541554155415583
:101DB0004155415541554155415541554155415573
:101DC0004155415541554155415541554155405564
:101DD0004155415541554155415541554155415553
:101DE00041554155415541554155404D4155404D55
:101DF000204DFFFFBCEFA97DE04481556155615541
:101E00006155605561556155615561556155615523
:101E10006155615561556155615561556155615512
:101E20006155615561556155615561556155615502
:101E300061556155615561556155615561556155F2
:101E400061556155615561556155615561556155E2
:101E500061556155615561556155615561556155D2
:101E60006155615561556155615560556155404DEC
:101E7000004DFFFFFFFFFFFF0E96C04460558155E8
:101E800061558155815581558155815581558155C2
:101E90008155815581558155815581558155815592
:101EA0008155815581558155815581558155815582
:101EB0008155815581558155815581558155815572
:101EC0008155815581558155815581558155815562
:101ED0008155815581558155815581558155815552
:101EE0008155815581558155815581558155415582
:101EF000E04CFFFFFFFFFFFFFFFF93B6C14C604DBB
:101F0000A15D81558155A155A155A155A155A15559
:101F1000A155A155A155A155A155A155A155A15511
:101F2000A155A155A155A155A155A155A155A15501
:101F3000A155A155A155A155A155A155A155A155F1
:101F4000A155A155A155A155A155A155A155A155E1
:101F5000A155A155A155A155A155A155A155A155D1
:101F6000A155A155A055A155A1558055A155415543
:101F7000A044FFFFFFFFFFFFFFFFFFFF18D7E45460
:101F8000204DE15DA055A155C155C155C155C15563
:101F9000C155A155C155A055A155A155A155C15532
:101FA000A155A155A155A155A155A155A155A15581
:101FB000A155A155A155A155A155A155A155A15571
:101FC000A155A155A155A155A155A155A155A15561
:101FD000A155A155A155A155A155A155A155A15551
:101FE000A155A155A155A155A155A155C155615561
:101FF0008044FFFFFFFFFFFFFFFFFFFFFFFF9BE7A7
:10200000276DE044E15DE15DC15DC15DC15DC15D24
:10201000C15DC15DE15DE15D015E015E015E015E8C
:10202000015E015E015E015E015E015E015E015EB8
:10203000015E015E015E015E015E015E015E015EA8
:10204000015E015E015E015E015E015E015E015E98
:10205000015E015E015E015E015E015E015E015E88
:10206000015E015E015E015E015E015E015E815501
:102070008044FFFFFFFFFFFFFFFFFFFFFFFFFFFFAA
:10208000DEFFAC8DA03CE15D015EE15DE15DE15D07
:10209000E15D015EE15D605500450045004500459C
:1020A0000045004500450045004500450045004508
:1020B00000450045004500452045004500450045D8
:1020C00000450045204520450045004500450045A8
:1020D0000045004500450045204520450045004598
:1020E0000045004500450045004500452045C044E9
:1020F0002034FFFFFFFFFFFFFFFFFFFFFFFFFFFF9A
:10210000FFFFFFFF31A66044C0554166005E015EDF
:10211000015E215EE055A24CEF9D0F9EEF9D0F9E4C
:102120000F9E0F9E0F9E0F9E0F9E0F9E0F9E0F9E47
:102130000F9E0F9E0F9E0F9E0F9E0F9E0F9E0F9E37
:102140000F9E0F9E0F9E0F9E0F9E0F9E0F9E0F9E27
:102150000F9E0F9E0F9E0F9E0F9E0F9E0F9E0F9E17
:102160000F9E0F9E0F9E0F9E0F9EEF9D0F9EEF9D49
:1021700072B6FFFFFFFFFFFFFFFFFFFFFFFFFFFF45
:10218000FFFFFFFFFFFFD6C6634C604D6266215E16
:10219000215E415EE055E55CFFFFFFFFFFFFFFFFB3
:1021A000FFFFFFFFFFFFFFFFFFFFFFFFFFFFFFFF3F
:1021B000FFFFFFFFFFFFFFFFFFFFFFFFFFFFFFFF2F
:1021C000FFFFFFFFFFFFFFFFFFFFFFFFFFFFFFFF1F
:1021D000FFFFFFFFFFFFFFFFFFFFFFFFFFFFFFFF0F
:1021E000FFFFFFFFFFFFFFFFFFFFFFFFFFFFFFFFFF
:1021F000FFFFFFFFFFFFFFFFFFFFFFFFFFFFFFFFEF
:10220000FFFFFFFFFFFFFFFF5ADFA65C004582666E
:1022100041664166005EC55CBDF7FFFFFFFFFFFF43
:10222000FFFFFFFFFFFFFFFFFFFFFFFFFFFFFFFFBE
:10223000FFFFFFFFFFFFFFFFFFFFFFFFFFFFFFFFAE
:10224000FFFFFFFFFFFFFFFFFFFFFFFFFFFFFFFF9E
:10225000FFFFFFFFFFFFFFFFFFFFFFFFFFFFFFFF8E
:10226000FFFFFFFFFFFFFFFFFFFFFFFFFFFFFFFF7E
:10227000FFFFFFFFFFFFFFFFFFFFFFFFFFFFFFFF6E
:10228000FFFFFFFFFFFFFFFFFFFFDEF70B7D803C3F
:102290006166A166205EA55CDEF7FFFFFFFFFFFF22
:1022A000FFFFFFFFFFFFFFFFFFFFFFFFFFFFFFFF3E
:1022B000FFFFFFFFFFFFFFFFFFFFFFFFFFFFFFFF2E
:1022C000FFFFFFFFFFFFFFFFFFFFFFFFFFFFFFFF1E
:1022D000FFFFFFFFFFFFFFFFFFFFFFFFFFFFFFFF0E
:1022E000FFFFFFFFFFFFFFFFFFFFFFFFFFFFFFFFFE
:1022F000FFFFFFFFFFFFFFFFFFFFFFFFFFFFFFFFEE
:10230000FFFFFFFFFFFFFFFFFFFFFFFFFFFFB09D8E
:10231000203C415E61668554DEF7FFFFFFFFFFFF53
:10232000FFFFFFFFFFFFFFFFFFFFFFFFFFFFFFFFBD
:10233000FFFFFFFFFFFFFFFFFFFFFFFFFFFFFFFFAD
:10234000FFFFFFFFFFFFFFFFFFFFFFFFFFFFFFFF9D
:10235000FFFFFFFFFFFFFFFFFFFFFFFFFFFFFFFF8D
:10236000FFFFFFFFFFFFFFFFFFFFFFFFFFFFFFFF7D
:10237000FFFFFFFFFFFFFFFFFFFFFFFFFFFFFFFF6D
:10238000FFFFFFFFFFFFFFFFFFFFFFFFFFFFFFFF5D
:1023900075BE2244604DA55CBEF7FFFFFFFFFFFF47
:1023A000FFFFFFFFFFFFFFFFFFFFFFFFFFFFFFFF3D
:1023B000FFFFFFFFFFFFFFFFFFFFFFFFFFFFFFFF2D
:1023C000FFFFFFFFFFFFFFFFFFFFFFFFFFFFFFFF1D
:1023D000FFFFFFFFFFFFFFFFFFFFFFFFFFFFFFFF0D
:1023E000FFFFFFFFFFFFFFFFFFFFFFFFFFFFFFFFFD
:1023F000FFFFFFFFFFFFFFFFFFFFFFFFFFFFFFFFED
:10240000FFFFFFFFFFFFFFFFFFFFFFFFFFFFDFFFFC
:10241000FFFF19DF054C044CDEFFFFFFFFFFFFFF4E
:10242000FFFFFFFFFFFFFFFFFFFFFFFFFFFFFFFFBC
:10243000FFFFFFFFFFFFFFFFFFFFFFFFFFFFFFFFAC
:10244000FFFFFFFFFFFFFFFFFFFFFFFFFFFFFFFF9C
:10245000FFFFFFFFFFFFFFFFFFFFFFFFFFFFFFFF8C
:10246000FFFFFFFFFFFFFFFFFFFFFFFFFFFFFFFF7C
:10247000FFFFFFFFFFFFFFFFFFFFFFFFFFFFFFFF6C
:10248000FFFFFFFFFFFFFFFFFFFFFFFFFFFFFFFF5C
:10249000DFFFFFFF7BE7CA74FEFFFFFFFFFFFFFFC9
:1024A000FFFFFFFFFFFFFFFFFFFFFFFFFFFFFFFF3C
:1024B000FFFFFFFFFFFFFFFFFFFFFFFFFFFFFFFF2C
:1024C000FFFFFFFFFFFFFFFFFFFFFFFFFFFFFFFF1C
:1024D000FFFFFFFFFFFFFFFFFFFFFFFFFFFFFFFF0C
:1024E000FFFFFFFFFFFFFFFFFFFFFFFFFFFFFFFFFC
:1024F000FFFFFFF7FFF7FFFFFFFFFEFFFDFFDEFF20
:10250000FEFFFDFFFFFF9FEFDFF73FDF9FE7FFF7D6
:10251000FFF7BFF7BFFFDFFFFEFFFEFFFDFFFCFF82
:10252000FCFFFCFFFDFFFEFFFFFFDFFFDFFFDFFF24
:10253000DFFFFFFFFFFFFFFFFFFFFEFFFFFFFFFFCC
:10254000FFFFFFFFFFFFFFFFFFFFFFFFFFFFFFFF9B
:10255000FEFFFFFFFFFFFFF7FFFFFFFFFFFFFEFF95
:10256000FEFFDFFFFFFFDDF7FFF77FDFDFCE3C95EC
:102570001A8DDDA5FFCE9FEFFFFFFFFFFFFFFFFFDF
:10258000FEF7FEFFFEFFFEFFFEFFFEFFFFFFFFFF69
:10259000DFFFDFFFDFFFDFFFFFFFFFFFFEFFFEFFCD
:1025A000FEFFFFFFFFFFFFFFFFFFFFFFFFFFFFFF3C
:1025B000FFFFFFFFFFFFFFFFFFFFFEFFFFFFFFFF2C
:1025C000DFFFDFFFDEFFDFFFFFFFFFF79FDF3C8D59
:1025D0009F95FF9D1F9E3D85DB7C3B8DDDADDFCE56
:1025E0009FE7FFF7FFF7FFF7FFFFBEEFDEF7FFFF05
:1025F000FFFFFFFFDFFFBFFFBFFFFFFFFFFFFFFF8B
:10260000FFFFFEFFFEFFFFFFFFFFFFFFFFFFFFFFDC
:10261000FFFFFFFFFFFFFFFFFFFFFFFFFFFFFEFFCB
:10262000FFFFDFFFDFFFDFFFDFFFDFFFFFF7FFEF72
:102630009DB61222D411D72A7E5C9F7DBFAEFF9D2E
:102640005E8DDC7CFB7C9C959FBE9FDFFFEFFFF7E0
:10265000FFF7BFEFBFF7FFFFFFFFFFFFFFFFFFFF2A
:10266000FFFFFFFFFFFFFFFFFFFFFFFFDFFFFFFF9A
:10267000FFFFFFFFFFFFFFFFFFFFFFFFFFFFFFFF6A
:10268000FFFFFEFFFFFFDFFFDFFFDFFFDFFFDFFFFB
:10269000FFF7FFE71FBFB62A581AF7013702F60106
:1026A0007812FD4B1F753F965F9E9F8DDC74FB7CFF
:1026B0003B8D7FB67FDFFFF7FFF7DFF77EE7BEF7E3
:1026C000FFFFFFFFDFFFDFFFDFFFFFFFFFFFFFFF7A
:1026D000FFFFFFFFFFFFFFFFFFFFFFFFFFFFFFFF0A
:1026E000FFFFFFFFFFFFFEFFFFFFDFFFBFFFDFFF7B
:1026F000DFFFDFFFFFF7FFE7BFAEB301590A5A0A5A
:10270000FC1A9A0A3902390AF701170A5B33DF6C9F
:10271000FF951F9EBF951D85DA7CF9841CAE9FE74F
:10272000FFF7FFF7DFEFFFFFFFFFFFFFFFFFFFFFF9
:10273000FFFFFFFFFFFFFFFFFFFFFFFFFFFFFFFFA9
:10274000FFFFFFFFFFFFFFFFFFFFFEFFFFFFDFFFBA
:10275000DFFFDFFFDFFFDFFFFFF7FFE7DFB6F40993
:102760005A123601D8013A023A0219027B12DC1AD7
:102770005A12D70118125C3B7F64BF951F9E1F9EA3
:102780005D8DB974D87CFCA51FCF5FDF9FEFFFFF85
:10279000FFFFFFFFFFFFFEFFFFFFFFFFFFFFFFFF4A
:1027A000FFFFFFFFFFFFFFFFFFFFFFFFFFFFFEFF3A
:1027B000FFFFDFFFDFFFDFFFDFFFFFFFFFF7FFEFC1
:1027C000DFB6D311591A9200F40055011401B70174
:1027D000B701F8013A125B1A5A1A1912D7091712DF
:1027E000D92A1D547F853F9E3F9E7E85DA7C1995B0
:1027F0001CB65FE7FFFFFFFFFFFFFFFFFFFFFFFFCD
:10280000FFFFFFFFFFFFFFFFFFFFFFFFFFFFFFFFD8
:10281000FFFFFEFFFFFFFFFFDFFFFFFFFEFFFFFFEA
:10282000FFF7FFEFFFBE7009F519F200B501540183
:1028300074015401F30014011401560119127B1A9A
:102840005A1A191219123912170AB9229B3B9F7D85
:10285000FF955FB67FC69EC6BFEFBFEFFFFFBEF717
:10286000FEFFFFFFFFFFFFFFFFFFFFFFFFFFFFFF79
:10287000FFFFFFFFFFFFFEFFFFFFFFFFDFFFFEFF8A
:10288000FEFFFFFFFFFFFFF77CB6322AB319AF0050
:1028900011017209520131015201B5117409F3009D
:1028A000D300F400F600FA113B1A7B1A1A0A390A0F
:1028B00018027A12571A5B6C5FDFDFCE7DBEFFF71E
:1028C000FFFFFFFFFFFFFFFFFFFFFFFFFFFFFFFF18
:1028D000FFFFFFFFFFFFFFFFFFFFFFF7FFFFFFFF10
:1028E000FFFFFEFFFDFFFEFFFFFFFFFF3ED7797CEE
:1028F000D221AE002F097119EF08701130090F09AC
:1029000031095209740995097601150157015701DA
:10291000B9013B0A7C121A02180A752ADC847FDF8F
:10292000FDAD1FD7FFF7DFEFFFFFFFFFFFFFFFFF4B
:10293000FFFFFFFFFFFFFFFFFFFFFFFFFFFFFFF7AF
:10294000FFFFFFFFFFFFFEFFFDFFFEFFFEFFFDF7A6
:10295000DFEF7CA54F196C000E11CD080E110D1183
:102960002D11CC080E095009100132095301340110
:102970005501F500D4001601B901B9017A1A151AEA
:1029800013227FB6BFDF9A9DDFEFFFF7FFFFFFFF48
:10299000FFFFFFFFFFFFFFFFFFFFFFFFFFFFFFFF47
:1029A000FFFFFFF7FFFFFFFFDFFFFEFFFDFFFEFF63
:1029B000FEFF9CEFFFF71B95EE10AD002F118D0071
:1029C000F54A1B953B9DB563B242F029ED00EE0040
:1029D000CF0011015201F611950155013501B300E7
:1029E000340174019311B5323FCFFFC65CB6FFF7D7
:1029F000FFFFFFFFFFFFFFFFFFFFFFFFFFFFFFFFE7
:102A0000FFFFFFFFFFFFFFFFFFFFDFFFDFFFDFFF36
:102A1000FEFFFEFFFFFFFEFFFFF7DB8C2F112F11E4
:102A2000CE088D00F96BFFEFFFF79FC6DFCEDFEF1B
:102A3000DFCEFC84B43AF1218D005109F00073011E
:102A4000B40974011301F20094096D00564BFFE7BD
:102A50007DBE7BBEFFFFFFFFFFFFFFFFFFFFFFFF0E
:102A6000FFFFFFFFFFFFFFFFFFFFFFFFFFFFDFFF96
:102A7000DFFFDFFFDEFFDFFFFFFFFFFFFFEF9E9DBA
:102A8000EF08CF004D00CF00F2299FE73FDF7263D0
:102A90008B21B042777CFFCEDFE775536E11F44295
:102AA0004F090E01CE00B211931154017509310185
:102AB000CD00BD9D7FD73AB67EE7DFF7DEF7FFFF9B
:102AC000FFFFFFFFFFFFFFFFFFFFFFFFFFFFFFFF16
:102AD000FFFFDFFFDFFFFFFFFEFFDFFFDFFFBEF7D0
:102AE000FFF71FCF3109EE00CD00122A0900E908D7
:102AF0007DC6FFF75EBEF04A05002A11703A8D19B7
:102B0000B23AFFE7FFC63A6CED080E09CE0012019B
:102B100054093201EF006E115FB6DFEF579D9FEF52
:102B2000BEF7DFFFFFFFFFFFFFFFFFFFFFFFFFFF1E
:102B3000FFFFFFFFFFFFFFFFFFFFFFFFFEFFDFFFC6
:102B4000BFFFFFFFDFEF7FAE91094900F66B7FE724
:102B500019956C3A2711F36B1FD7FFEF5C9569004D
:102B60002D094E118B00D44ABC847763F55237632C
:102B7000F239CF08F1081309D200D52154321FAE23
:102B80008B19DED6BFF7FFFFDFFFFFFFFEFFFDFF64
:102B9000FDFFFFFFFFFFFFFFFFFFFFFFFFFFFEFF48
:102BA000FEFFDFFFBFFF1DEFFFF73FA69209AB005F
:102BB000167CDFFFBFF7FFFF9DCE968C7EBEFFEF3A
:102BC0009FDFFB8CCB08AB008B0049002900AE29AE
:102BD000798CDA9CB2522D19EE08B000D100941114
:102BE00014221D8D6B111FDFDFFFDFFFDFFFFFFFF3
:102BF000FFFFFDF7FDF7FFFFFFFFFFFFFFFFFFFFF9
:102C0000FFFFFEFFFEFFDEFFBEFFFFFF5FDFB6320E
:102C100032014D000A00503917731CADBFFFDFFFB2
:102C2000BFF7DFF7FFF75FE7C8089363567C72636F
:102C3000EF4AB68CBDCE1ED7FED67FDF797CED0085
:102C40006D00D211D5321B85CC215FE7FFFFDFFF7E
:102C5000BFFFDFFFFFFFFFF7FFFFFFFFFFFFDFFF0C
:102C6000DFFFDFFFFFFFFFF7FEF7DEFFDEFFBFFF47
:102C7000FFD6510113018E082C100B080B104C10BD
:102C8000CD2015633DAD7FD65FCE9473C810DFF7BE
:102C9000FFFF7FE7BFEFFFF7FFF7BDE7FFF7FFF7A6
:102CA0001FCFF342AC00900951221A7D8A195FDFD1
:102CB000BFF7DFFFBFFFDFFFDFFFFFFFFFFFFFFF0C
:102CC000FFFFDFFFDFFFDFFFFFFFFFF7FEF7FFFF85
:102CD000DFFFDFFFBFCE300193112B006B200A20F6
:102CE0000B186E100B004D006D086C102A0829108F
:102CF000B67B7FFFDFFFDFFFBFF79FEFBFEFFFF781
:102D0000FFF7FFEFFFEF386CCC00900931227B8595
:102D10002B227EDFDFF7DFFF9FFFDFFFDFFFDFFF1D
:102D2000FFFFFFFFFFFFFFFFFFFFDFFFFFFFFFF7DB
:102D3000FFF7DFFFDFFFFFFF3CB60E01B219070010
:102D4000A828052826202808CC104A080A008D1833
:102D50006D100B008D187352398C9FD6DFFFDFF793
:102D6000DFF7FFF79FEFFFF79FC672326C00F21993
:102D70003222B86CF67CFFEFFFFFFFFFDFFFDFFFC3
:102D8000DFFFDFF7FFFFFFFFFFFFFFFFFFFFFFFF9B
:102D9000FFFFFFF7FFF7DFFFDFFF9FEFDEC6EF1953
:102DA0006C09A83132BD6EB4288BC35102310008C2
:102DB0004618AB180B004E0070004F002D006C0041
:102DC0008F29F35AB573B583D58391526F218E0045
:102DD0008F007309D632712A1BA6FFEFFFFFFEFF9B
:102DE000FEFFFFFFFFFFDEFFFFFFFFFFFFFFFEFF16
:102DF000FEFFFFFFFFFFFFF7FFF7DFFFBFFFFFFF54
:102E00009DC68C090901274290C5CBBC2BD56AD53C
:102E100067B4A79B456282202510691009000C0049
:102E2000F0186E080B004C084B0808000908090050
:102E30004C08D1100F0055095FA63122756CFFE7D1
:102E4000FEF7DDFFDCFFFEFFFEFFFDFFFEFFFFFFE5
:102E5000FFFFFEFFFEFFFFFFFFFFFFF7FFF7DFFFB4
:102E6000BFFFFFFF7CBE8C094A09474AB4E66DD517
:102E700086BC25DD24DD24D545D506CD05AC847280
:102E80006449031807100B104E104E082D004D001A
:102E90008D086C100B089110310035111E645FAE67
:102EA0008B115DD7FEF7FDFFFDFFFDFFFDFFFDFF71
:102EB000FEFFFFFFFFFFFEFFFEFFFFFFFFFFFFF72D
:102EC000FFF7DFFFBFFFFFFF7CBE8D094B09AB5251
:102ED000DBFF78FF55FFABED67E505DDE4DC05DDE5
:102EE00006DDE7DCA9D46CC4C98AE54804180610DD
:102EF000280869088A1028102A10B01851005100BB
:102F0000F6213E858B113ED7FFF7FDFFFDFFFEFF4B
:102F1000FEFFFEFFFEFFFFFFFFFFFFFFFFFFFFFFC4
:102F2000FFFFFFF7FFF7DFFFBFFFFFFF9EC66F0941
:102F3000ED004E429FFF9FFF9EFF9DFF9CFFD8FE2E
:102F4000F4FD30F5CCE4A9E4A6E4E5EC25ED46ED8E
:102F5000C7D4659BA25960300018432004100900B3
:102F60008E083319D4215F8D6B113ED7FFF7FEFF1A
:102F7000FFFFFFFFDFFFFFFFFFFFFFFFFFFFFFFF81
:102F8000FFFFFFFFFFFFFFF7FFF7DFFFBFFFDFFFE1
:102F90005DBE70093001924ABFFF9FFF7FFF1FFF98
:102FA0005FFF7FFF7FFF7DFFF7FE51FEECFDE4E456
:102FB000C2DCC1DC03E527EDE9E44AD4CABB256ADB
:102FC000454105084A089221F4297F950A093FD70F
:102FD000FFF7FFFFFFFFDFFFDFFFFFFFDFFFFFFF69
:102FE000FFFFFFFFFFFFFFFFFFFFFFF7FFF7DFFF21
:102FF000BFFFDFFF5DBE70093101B34A9FF7FFEEEF
:103000007FEE9FFF9FFFBFFFBEFFFCFFFBFFF9FFAF
:10301000D8FFD8FFF5FEAFEDCBE469EC68F446FCD1
:1030200046ECCBCCAEACAC62C9180E1950197E95EB
:103030006B113FD7FFF7DFFFDFFFDFFFDFFFDFFFB2
:10304000DFFFFFFFFFFFFFFFFFFFFFFFFFFFFFFFB0
:10305000FFFFBFFFBFFFDFFF7EC670092F01913A60
:103060007FEFBFDE3CCEBAC51ACEDBDEBDF7FDFF7B
:10307000FDFFFDFFFDFF5BF7BDFFBDFF7AFF74FEA7
:10308000AEFD2AFDE8EC4ADDCFD5509C09290D198B
:10309000B021BE9DAC193ED7FFF7FFFFFFFFFFFF3A
:1030A000DFFFFFFFDFFFFFFFFFFFFEFFFEFFFEFF73
:1030B000FFFFFFFFFFFFBFFF9FFFDFFF5DC66F0941
:1030C0006E013043FFF7FFFFFDF7DDE77BD7B9C6A1
:1030D00037B617BE9AD65DF7FFFFFEFFFDFFDCFF98
:1030E000BBFFFBFFFBFFFAFF76F78BCDCEDDB0B465
:1030F000C7202D2111325D952A113ED7FFF7FEFF23
:10310000FEFFFFFFDFFFFFFFFFFFFFFFFFFFFCFFF3
:10311000FDFFFEFFFFFFFFFFFFFFBFFFBFFFDFFF62
:103120007DBE8F094E01AE3ADFE7BCEF9AE7FDEFB7
:10313000FDEFFEF7FEEF1CDF5ACEF9CDD8CD9ADEBB
:103140007CF7FEFFFDFFFDEFFEEFFEE7FDF7F8FF6A
:10315000D9FF9AE64A312D19F1293B8D8A193ED7BC
:10316000FFF7FEFFFEFFFFFFFEFFFFFFFFFFFFFF7A
:10317000FFFFFBF7FCFFFFFFDFFFDFFFDFFFDFFFEE
:10318000FFFFFFF7DFC64F090F01B342DFF73DE74F
:10319000D4BD56C6D8CE5BE7DEF7FFFFFFFFDFFFEB
:1031A0009FF79AD658C617BE78C61BD7DDE7FEEF45
:1031B000FEF7FDFFDFFF5FEF6D212D0910229C8DD3
:1031C000A9115DD7FFF7FFFFFFFFFFFFFFFFFFFF25
:1031D000FFFFFFFFFFFFFBF7FCF7FFFFDFFFBFFF76
:1031E000BFFFFFFFFFF7FFEFDFBE4F0930093332AC
:1031F0005FE79FF7FEFF5CF7FBE659CE18C659CE96
:10320000FBE69EF7FFFFFFFFFFFF9EEFFBDE79C6A9
:1032100038C679CEBAD65EEFDFFF3FDF8E194F1189
:1032200031229B8D89095DD7FFF7FFFFFFFFFFFF6D
:10323000FFFFFFFFFFFFFFFFFFFFFEF7FFF7FFFFAF
:10324000BFFFBFFFBFFFFFFFFFF7FFE79DAE6E09A8
:10325000901152329FEF1CE79CF75FF79FFF9FFF93
:103260005FF7DCDE59CE38CE57CE3BE77CEFDEFF92
:10327000FFFFFFFFBFF7FDDE5ACE1DE7BFF73FDFC1
:103280008E194E1131227B8D89115DD7FFF7FFFF1B
:10329000FFFFFFFFFFFFFFFFFEFFFFFFFFFFFFF747
:1032A000FFFFDFFFBFFFBFFFBFFFFFFFFFF7FFEF26
:1032B000BEB66D092E09102ABFEFF8B554A51AC67F
:1032C0009CD63FEFDFFFFFFFBFF75DEF1BE758CE58
:1032D00038C618C69AD63DEFBFFFFFFFDFFF9EF747
:1032E000FFFF3FE76D192E0910227B8D89115ED7F4
:1032F000FFFFFFFFFFFFFFFFFFFFFFFFFEFFFFFFDF
:10330000FFFFFFF7FFFFDFFFBFFFBFFFDFFFFFFF95
:10331000FEF7FFEFBEB64C090D01F0297FDFFDD6A9
:103320003CE799CEF6BD55AD76AD59CE3DE79FF75A
:10333000BFFFBFFF9FFF3EEF9BDEF8CDF7C579D6FD
:10334000FAE69DFFFFFF5FE78D212E1110227C8D95
:103350008A113ED7FFFFFFFFDFFFFFFFFFFFFFFFE9
:10336000FEFFFFFFFFFFFEFFFFFFFFFFDFFFDFFFAF
:10337000DFFFFEFFFEF7FFEF7DB66D118F116F19B6
:103380007A7C9BAD7FE79DE77CE71BDF9ACE19BE79
:10339000D8BDF9BD1AC6FEE65FEFDFFFFFFFBEFF37
:1033A0001BEF98DE57D65BF7DFFF5FE78D214E11ED
:1033B00011225C8D49113FDFFFFFDFFFDFFFFFFFC1
:1033C000FFFFFFFFFEFFFFFFFFFFFCFFFDFFFFFF13
:1033D000FFFFDFFFFFFFFDFFFEF7FFF79EBE6E1151
:1033E00050118E00CE088F29904AB68CD9AD3ED7A9
:1033F000BFEF5EDFBCCE7AC659C695AD95B5F6BDBA
:1034000099D65BEFDDFFFEFFFDFF3BEFBFFF3FE720
:103410006D214E1111225C956A113FDFFFFFDFFF26
:10342000DFFFFFFFFFFFFFFFFEFFFFFFFFFFFCFFD0
:10343000FCFFFEFFFEFFFFFFFEFFFDFFFEF7FFF7B5
:103440009EBE2C112F11711951199021AB08CA0879
:103450004B116F3A3574FBAD1ED75EDF3DDF3CDFAD
:103460001BDFB9CE16BEB5B5D5B577CEF9DE9CF764
:10347000FFFF3FDF4C190D09F1217C958B213FDFC8
:10348000FFFFDFFFDFFFDFFFFFFFFFFFFEFFFFFFAD
:10349000FFFFFCFFFDFFFEFFFEFFFEFFFEFFFEFF46
:1034A000FEFFFFF71FD799841132AD08CE084F19E0
:1034B0007021B22171190E09CC000B090E2AF46B90
:1034C00099A5BCC63DD75DDF1BD7FAD61AD777C6FC
:1034D000B4ADF7BD9FEF1FDF4D196F11D0199D9D42
:1034E0004A111FDFDFFFDFFFBFFFDFFFFFFFFFFF2F
:1034F000FFFFFFFFFFFFFEFFFEFFFFFFFFFFFFFFDE
:10350000FFFFFEFFFFFFFFFFFFF7FFF71FD7DFAD56
:10351000397C71420D11CE00EF087119D121B02113
:103520004D110B090A098B19715B799D9CBEDDCE8B
:103530001DD73DD73DDFDCD6DDD69FC66E19B1194C
:103540001222FB84CC213FDFFFFFDFFFDFFFDFFF25
:10355000FFFFFFFFFFFFFFFFFFFFFFFFFFFFFFFF7B
:10356000FFFFFFFFFFFFFFFFFFFF7DEFDFF7FFFF25
:10357000FFF7FFF7BFEF3FD79FC65774144BCF211C
:103580000C09ED080E114F1170192F11EE10ED08F6
:103590006E21D24A997C1EB61FD73FDFFFD69FC649
:1035A000CD00AD00532A1B85CC213EDFFFFFDFFF9E
:1035B000DFFFDFFFFFFFFFFFFFFFFFFFFFFFFFFF5B
:1035C000FFFFDFFFFFFFFFFFFFFFFFFFFFFFFFFF2B
:1035D000FFFFFFFFDFF7DFF7FFF7FFF7FFEFFFEF7B
:1035E0007FD73DAE3A8D5874555B11322F110F11B4
:1035F0001011301951191011EF0850191132988417
:103600009CA5BFA591111001742A1A8528093EDFD7
:10361000DFFFDFFFDFFFDFFFFFFFFFFFFFFFFFFF3A
:10362000FFFFDFFFDFFFFFFFFFFFFFFFFFFFFFFFEA
:10363000FFFF9EF7BEFFDEFFFEFFFFFFFFFFFFF76E
:10364000FFF7FFEFFFEFFFF7FFF7FFF7BFE79EBEC4
:103650007B9D946331320E09F01073219521551929
:1036600033194B000C092F09CF003101B1115C8DCA
:103670000B2A3DD7DEF7DFFFBFFFDFFFFFFFFFFFB6
:10368000FFFFFFFFFFFFFFFFFFFFFFFFFFFFFFFF4A
:10369000FFFFFFFFDFFFFFFFFFFFFEFFFEFFFDFF5E
:1036A000FEFFFEF7FEF7FFFFFFFFDFF7BEEFFFEFC6
:1036B000FFF7FFF7FFF7FFF75FD7BDA5D863D1216D
:1036C0008E00D0007219B021F121CF007309930947
:1036D000B1091A7D27095DDFFEFFFEFFBEFFDFFF98
:1036E000DFFFFFFFFFFFFFFFFFFFFEFFFEFFFEFF0D
:1036F000FFFFFFFFFFFFFFFFDFFF9FFFBEFFDEFFBC
:10370000FEFFFEFFFFFFFFFFFFFF9CEFDDFFFEFF61
:10371000FFFFFFFFFFFFFFF7BFE7DFEFFFF7FFEF61
:10372000FFEF5FD7588DCE3A29090C093009D00038
:103730009409730154225B85C9199EE7FEFFFEFFC1
:10374000BEFFDFFFDFFFFFFFFFFFFFFFFFFFFEFF0B
:10375000FEFFFEFFFEFFFFFFFFFFFFFFFFFFDFFF9C
:10376000DFFFDEFFFEFFFEFFFFFFFFFFFFFFFEFFAD
:10377000FEFFFEFFFEFFFFFFFFFFFFFFFFF7FFF76C
:10378000FFF7FFEFFFEFFFF7FFEFDDDF3DCFB8847F
:10379000B33A9111B2198D00AF11FC9D7795DEEF10
:1037A000FEFFFEFFBEFFDFFFFFFFFFFFFFFFFFFF8C
:1037B000FFFFFFFFFFFFFFFFFFFFFFFFFFFFFFFF19
:1037C000FFFFFFFFFFFFFFFFFFFFFFFFFFFFFFFF09
:1037D000FFFFFFFFFFFFFFFFFFFFFFFFFFFFFFFFF9
:1037E000FFFFFFFFFFFFFFFFFFFFFFFFFFF7FFF7F9
:1037F000FFF7FFFFFFF71FD7D98CF24AD46BBDC686
:10380000FFF7FFFFFEFFFFFFFFFFFFFFFFFFFFFFD1
:10381000FFFFFFFFFFFFFFFFFFFFFFFFFFFFFFFFB8
:10382000FFFFFFFFFFFFFFFFFFFFFFFFFFFFFFFFA8
:10383000FFFFFFFFFFFFFFFFFFFFFFFFFFFFFFFF98
:10384000FFFFFFFFFFFFFFFFFFFFFFFFFFFFFFFF88
:10385000FFFFFFFFFFFFBEF7DFFFFFFFDFF7BFEF59
:10386000FFF7FFF7BDEFFEFFFEFFFFFFFFFFFFFFCC
:10387000FFFFFFFFFFFFFFFFFFFFFFFFFFFFFFFF58
:10388000FFFFFFFF7DEFFFFF7DEF7DEFFFFFDFFF1E
:103890007DEFFFFFFFFFFFFFFFFFFFFFDFFFFFFFEA
:1038A000FFFFDFFFDFFFFFFFFFFFFFFFDFFFFFFF88
:1038B000FFFF7DEF59CEDBDE5DEFBEF7FFFFFFFFC1
:1038C0007DEF9EF7FFFFFFFFBEF7BEF7DFFFFFFFB5
:1038D000FFFFFFFFFFFFFFFFFFFFFFFFFFFFDFFF18
:1038E000FFFFFFFFDFFFBEF7FFFF9EF7BEF73CE7DE
:1038F000FBDEFBDEFBDEDBDEFBDE3CE73CE7DFFF87
:10390000DFFFFFFFFFFFDFFFFFFFFFFFDFFFDFFF47
:10391000FFFFDFFF9EF718C69294EF7B2C631084A5
:1039200014A5DBDEFFFFFFFF7DEF5DEFFFFFFFFF75
:10393000FFFFFFFFFFFFDFFF7DEFBEF7FFFFFFFF92
:10394000FFFFFFFFFFFFBEF7FFFFFFFFDFFF55ADEC
:1039500018C6FFFF5DEFBEF7FFFF9EF77DEF9EF7F6
:103960003CE75DEFDFFFFFFFFFFFDFFFFFFFFFFF34
:10397000DFFFFFFFFFFFFFFFBEF7718CA631494A53
:10398000AE734D6BAA52CB5A9294DBDEFFFFFFFF62
:103990009EF7FFFFFFFFFFFFDFFFFFFFFFFFFFFFC0
:1039A0009EF7FFFFFFFFFFFFFFFFBEF7FFFFFFFFD9
:1039B000BEF7718CCB5A7DEFFFFFFFFFFFFFDFFFEC
:1039C000DFFFBEF73CE71CE75DEF9EF7BEF7FFFFAA
:1039D000FFFFFFFFFFFFFFFFFFFFFFFFFFFF38C6F7
:1039E0002C632842E739CB5ACB5A694A08422C63E8
:1039F000D7BDDFFFFFFF9EF7FFFFFFFFFFFFFFFFCA
:103A0000FFFFFFFFFFFFFFFFFFFF9EF7FFFFFFFF2F
:103A10009EF7FFFFFFFF59CE2842B2943CE7FFFF1D
:103A20007DEF5DEF9EF79EF79EF73CE71CE7DBDE40
:103A30005DEFFFFFFFFFDFFFFFFFFFFFFFFFDFFF88
:103A4000FFFFFFFF3CE775ADAA528631E739EB5A1D
:103A5000EB5AE739494AD39C1CE7FFFFDFFF9EF78B
:103A6000DFFFFFFFDFFFDFFFFFFFFFFFFFFFFFFFC6
:103A7000FFFFFFFFDFFFFFFF9EF7FFFF96B58A52B4
:103A800075AD9EF7DFFFDFFFBEF79EF7DFFF7DEF2F
:103A90003CE779CEDBDEDFFFFFFF9EF7FFFFDFFFB6
:103AA000FFFFFFFFFFFFDFFFFFFFFFFF7DEFAE73B5
:103AB000C7398631694A28428631494A2C63BAD6C9
:103AC0009EF7FFFFBEF7DFFFFFFFFFFF7DEFFFFF6A
:103AD000FFFFFFFFBEF79EF7FFFFFFFFBEF7FFFFF1
:103AE000FFFF1084CF7B96B5DFFFFFFF9EF79EF7A9
:103AF0003CE75DEF7DEF79CE18C63CE7FFFFBEF7F0
:103B0000FFFFFFFFDFFF9EF7FFFFFFFF9EF7DFFFD7
:103B10009EF7FBDE8E738631C739C739C739E7395F
:103B2000A631494A55ADDFFFFFFF7DEF9EF7FFFF4E
:103B3000FFFFFFFFFFFF9EF7FFFFDFFF1CE75DEFCB
:103B4000FFFF5DEFDFFFFFFF8E73AE731CE77DEFBE
:103B50007DEFFFFF3CE7FBDEBEF79AD696B5BAD6FF
:103B6000FFFFFFFFFFFFDFFFFFFFFFFFFFFFDFFFA5
:103B7000BEF7FFFFBEF7FFFFAE7324218631A631EB
:103B8000652965294529452986318E73DBDEFFFFCE
:103B9000DFFF9EF7FFFFFFFFFFFFFFFF9EF7FFFF27
:103BA00075AD38C61CE7FFFFFFFFFFFF3CE78E73D4
:103BB00034A5DFFF3CE79EF71CE7FBDE1CE7FBDEDE
:103BC000D7BD18C69EF7FFFFDFFFFFFFDFFFFFFF38
:103BD000FFFFFFFFFFFFFFFFBEF73CE7E31865298C
:103BE0004529A21045292421C3182421C318A21055
:103BF0002842B6B5FFFFFFFFDFFFFFFFFFFFDFFF3C
:103C0000FFFFFFFF14A53CE759CED7BDFFFFFFFF25
:103C10007DEFF7BD34A51CE79EF75DEF9EF7FBDE59
:103C20001CE7FBDED7BD38C6DFFFFFFFDFFFFFFF6E
:103C3000DFFFDFFFDFFFBEF7DFFFFFFF9EF72C6335
:103C40004529E318C3182421E31820002421610822
:103C50004529C31820008210EF7B7DEFFFFFFFFF97
:103C6000FFFFDFFFBEF7FFFFF39C79CE1CE718C60E
:103C700059CE7DEFFFFFFFFF38C61CE79EF7FBDE46
:103C80003CE7FBDEDBDEBAD6D7BD59CEDFFFFFFF58
:103C9000FFFFFFFFDFFFFFFFFFFFDFFFFFFFFFFF74
:103CA000BEF7652982108210C3184108A210242192
:103CB0006108E318E318A2100421E318821075AD1F
:103CC000DFFFFFFFFFFFFFFFBEF7FFFF55AD14A5AE
:103CD000FFFF5DEFF7BD79CEFFFF7DEF1CE75DEFE6
:103CE0005DEF3CE7DBDEFBDE79CE38C6D7BD9AD68A
:103CF000DFFFFFFFFFFFDFFFDFFFFFFFFFFFFFFF34
:103D0000FFFFFFFF9EF79294EB5A2421A210863109
:103D1000E31882100421C3184529E31861080842FA
:103D20004108F7BDFFFFFFFFFFFFBEF7FFFFFFFFEB
:103D300079CE718C3CE73CE77DEFF7BD9AD6D7BDD5
:103D40005DEF3CE75DEF9AD6FBDE1CE738C618C690
:103D500038C6FBDEDFFFBEF7FFFFFFFFFFFFFFFF01
:103D6000FFFFBEF7DFFFDFFF3CE79EF7CF7BAA52E6
:103D70002421242141088210863104218631C7394B
:103D800086312421C318BAD6FFFFFFFFFFFFFFFFD4
:103D9000FFFFDFFF5DEF6D6B59CEBEF7DBDED7BDFA
:103DA00075ADD7BD7DEF3CE71CE714A5D7BD59CE57
:103DB00038C69AD6DBDE3CE7DFFFDFFFFFFFFFFF01
:103DC000FFFFFFFFDFFFBEF7FFFFDFFF1CE714A5CC
:103DD000CB5AEF7BC7390000C739CF7BAA524529A0
:103DE00041084529CB5A8210CB5A3CE7BEF7FFFF6A
:103DF000FFFFFFFFDFFFDFFFFFFFAE7334A59EF77E
:103E000034A575ADB6B59AD63CE7FBDEB6B5D39C06
:103E100014A5308496B51CE7FBDE1CE7FFFFFFFF0F
:103E2000FFFFFFFFDFFFDFFFDFFFFFFFFFFF1CE7FD
:103E300096B528423084518C4D6B2C63F7BDBAD6B1
:103E400038C6694A8210610841084529BAD6FFFF81
:103E5000BEF7FFFFFFFF9EF7FFFFBEF7FFFF96B520
:103E60004D6B75ADB6B534A5BAD679CE59CE38C638
:103E7000108479CEB6B52842F39C3CE7BAD69AD6E0
:103E8000FFFFFFFFDFFFFFFFDFFFFFFFFFFFFFFF82
:103E90005DEF75AD2C63EF7B10848E73FBDE38C64F
:103EA000DFFFFFFFBEF7FBDECB5A6529A210D7BDAF
:103EB000FFFF7DEFFFFFFFFFFFFFFFFFFFFFFFFFA4
:103EC0005DEFBEF7EB5AB29434A5D7BDB6B59AD61E
:103ED000F7BD518C59CE34A5CB5A108455AD3CE773
:103EE000DBDEDBDEFFFFDFFFDFFFFFFFDFFF9EF735
:103EF00018C6F7BDDBDE8E736D6B10846D6B79CEEB
:103F0000FFFFBEF7FFFFFFFFDFFFFFFF1CE7B294DD
:103F100092947DEFFFFFBEF7FFFFFFFFFFFFFFFF64
:103F2000BEF7FFFFFFFFFFFF96B5308496B5B6B52D
:103F3000D7BDD7BD718C18C614A5EF7B4D6B38C6A5
:103F4000DBDEFBDEBAD65DEFFFFFDFFFBEF77DEF06
:103F5000FFFF55AD652965294D6B8E73CF7B8A5266
:103F600079CEFFFFDFFFFFFFFFFFFFFFFFFF9EF7A1
:103F7000FFFF7DEF5DEFFFFFFFFF7DEFFFFFFFFF27
:103F8000FFFFFFFFFFFFBEF7FFFFFFFF3CE7F39CD4
:103F900096B514A5F7BDD39CF39C55ADAE730C63D9
:103FA000F39C38C61CE7BAD659CEDBDE7DEFFFFFA7
:103FB000FFFFFFFF518C24212842042141080C639C
:103FC000284234A5FFFFFFFF7DEFFFFFDFFFBEF7B5
:103FD000FFFFBEF7FFFFFFFFFFFFFFFFFFFFDFFF5A
:103FE000FFFFFFFFFFFFFFFFFFFF7DEF9EF7FFFFDC
:103FF000D39CF39C96B596B596B5D39CF7BDCF7B75
:10400000EB5AEF7B75AD18C6FBDEFBDE1CE7DBDE93
:104010007DEFFFFF9EF78E730421E739A631E73964
:10402000E73900006D6BFFFFDFFF3CE7FFFFFFFF9D
:10403000BEF7FFFFFFFFFFFFBEF77DEF9EF7DFFF3D
:10404000FFFFFFFFDFFFFFFFFFFFFFFFFFFFDFFFC0
:10405000FFFFFFFFAA522C63B294B6B5D39C55ADB7
:1040600014A530844D6B75ADF39C18C6B6B5D7BD9D
:1040700079CE38C61CE75DEFAE73E318494AC739FD
:104080006529A6312421000034A5FFFF1CE7FFFFAE
:10409000FFFF9EF7FFFFFFFFDFFFFFFFDFFFFFFFD9
:1040A000FFFFFFFFFFFFFFFFDFFFFFFFFFFFFFFF40
:1040B000BEF7FFFFFFFFBEF755ADCB5A694AEF7B56
:1040C0009294F39CF39CF39C14A518C638C655AD86
:1040D000718C34A5F7BD75AD59CEB6B586318A520F
:1040E0006529A631E739E318610845293CE7BEF7A1
:1040F0007DEFFFFFFFFFDFFFFFFFBEF7FFFFFFFFCB
:10410000FFFFFFFFFFFFFFFFFFFFFFFFFFFFFFFFBF
:10411000FFFFFFFFFFFFFFFFBEF79EF7FFFF96B514
:104120004D6B0842EB5ACB5A4D6BCB5A8E73EB5A00
:10413000518CD39CB29438C6DBDE79CEBAD638C661
:104140009294C31828422421042104210000B2942F
:10415000FFFFFFFFFFFFBEF7BEF7FFFFFFFF7DEF93
:10416000FFFFFFFFDFFF9EF79EF7FFFFFFFFFFFF51
:10417000FFFFFFFFFFFFFFFFFFFF7DEFFFFFDFFF01
:104180007DEFFFFF1CE775ADCF7BCF7B0C634D6BE5
:104190008A52E7392842AE733084D7BD59CE9AD6B9
:1041A0009AD6F7BDBAD6B294E318863104218210AC
:1041B0008631DFFF7DEF7DEFFFFFFFFFFFFFFFFF9A
:1041C000DFFFFFFFFFFFFFFFFFFFFFFFFFFFFFFF1F
:1041D000FFFFDFFFFFFFFFFFFFFFFFFFFFFFFFFF0F
:1041E000FFFFFFFFFFFFFFFFFFFFFFFFBEF71CE723
:1041F000FBDE79CE96B5B2946D6B2842AE73718CAE
:1042000038C618C6BAD6FBDE96B59AD6718C82101F
:104210000000C31875ADBEF7DFFFDFFFFFFFFFFF34
:10422000FFFFFFFFFFFFFFFFFFFFFFFFFFFFFFFF9E
:10423000FFFFFFFFFFFFFFFFFFFFFFFFFFFFFFFF8E
:10424000FFFFFFFFFFFFFFFFFFFFFFFFFFFF9EF7E7
:10425000FFFFBEF7FFFFFFFFDFFFDFFF5DEFF39C18
:10426000494A718C718C59CEFBDE18C659CE55ADBA
:1042700059CE3084A210AE7379CEFFFF9EF7FFFFB8
:10428000FFFFFFFFFFFFFFFFFFFFFFFFFFFFFFFF3E
:10429000FFFFFFFFFFFFFFFFFFFFFFFFFFFFFFFF2E
:1042A000FFFFFFFFFFFFFFFFFFFFFFFFFFFFFFFF1E
:1042B000FFFFBEF7FFFFFFFFFFFFFFFFFFFFFFFF57
:1042C000DFFF1CE7718CCB5A518C34A5D7BD9AD631
:1042D000BAD659CE55AD9AD6929496B5FFFFDFFF68
:1042E000FFFFFFFFFFFFFFFFFFFFFFFFFFFFFFFFDE
:1042F000FFFFFFFFFFFFFFFFFFFFFFFFFFFFFFFFCE
:10430000FFFFFFFFFFFFFFFFFFFFFFFFFFFFFFFFBD
:10431000FFFFFFFFFFFFFFFFFFFFBEF7DFFFFFFF16
:10432000BEF7DFFFDFFFFFFF75AD0421108492941D
:10433000718C9AD679CEFBDEF7BDF39C9EF77DEFAC
:104340003CE7FFFFDFFFFFFFFFFFFFFFFFFFFFFF78
:10435000FFFFFFFFFFFFFFFFFFFFFFFFFFFFFFFF6D
:10436000FFFFFFFFFFFFFFFFFFFFFFFFFFFFFFFF5D
:10437000FFFFFFFFFFFFFFFFFFFFFFFFFFFFBEF796
:10438000FFFFFFFFBEF7FFFFFFFFBEF70842A210CF
:10439000C7399294B29414A518C638C6FBDE96B5F8
:1043A000D7BD9EF71CE7FFFFBEF7FFFFFFFFFFFF34
:1043B000FFFFFFFFFFFFFFFFFFFFFFFFFFFFFFFF0D
:1043C000FFFFFFFFFFFFFFFFFFFFFFFFFFFFFFFFFD
:1043D000FFFFFFFFFFFFFFFFFFFFFFFFFFFFFFFFED
:1043E000FFFFFFFFFFFF9EF77DEFFFFF9EF74D6B87
:1043F0002000E318A210694A14A5B29475AD18C63E
:1044000038C63CE755AD34A5FFFFFBDEFFFFDFFFFD
:10441000DFFFFFFFFFFFFFFFFFFFFFFFFFFFFFFFCC
:10442000FFFFFFFFFFFFFFFFFFFFFFFFFFFFFFFF9C
:10443000FFFFFFFFFFFFFFFFFFFFFFFFFFFFFFFF8C
:10444000FFFFBEF7DFFFFFFFFFFFDFFFFFFFBEF74E
:10445000D39C00000421A210042161084D6BF39C41
:1044600014A5D7BD38C618C61CE734A559CE5DEFD4
:104470005DEFBEF7DFFFDFFFFFFFFFFFFFFFFFFF87
:10448000FFFFFFFFFFFFFFFFFFFFFFFFFFFFFFFF3C
:10449000FFFFFFFFFFFFFFFFFFFFFFFFFFFFFFFF2C
:1044A000FFFFFFFFFFFFFFFFFFFFFFFFDFFF9EF7A5
:1044B000FFFF18C68210C31882108210A210C31802
:1044C000E3181084F39CB6B5D7BD59CE38C63CE787
:1044D00075AD59CE3CE79EF7BEF7DFFFFFFFFFFF4C
:1044E000FFFFFFFFFFFFFFFFFFFFFFFFFFFFFFFFDC
:1044F000FFFFFFFFFFFFFFFFFFFFFFFFFFFFFFFFCC
:10450000FFFFFFFFFFFFFFFFFFFFFFFFFFFF9EF724
:10451000FFFFDFFFFBDE2842C318C3186108042138
:10452000A210410841086529B29414A5D7BD18C648
:1045300018C6BAD679CE18C659CE9AD65DEFDFFF27
:10454000DFFFDFFFFFFFFFFFDFFFFFFFFFFFFFFFDB
:10455000FFFFFFFFFFFFFFFFFFFFFFFFFFFFFFFF6B
:10456000FFFFFFFFFFFFFFFFFFFFFFFFFFFFFFFF5B
:10457000FFFFFFFF3CE7FFFFCB5AE739A631A21050
:10458000C318200061082000C318AA528A52B294AE
:10459000F7BD18C696B538C659CEDBDE18C618C6A4
:1045A00059CE1CE7FFFFFFFFDFFFDFFFFFFFFFFF2D
:1045B000FFFFFFFFFFFFFFFFFFFFFFFFFFFFFFFF0B
:1045C000FFFFFFFFFFFFFFFFFFFFFFFFFFFFFFFFFB
:1045D000FFFFDFFFFFFF7DEFFFFF3084E739A631EC
:1045E0002842E31861084108200000006D6B18C6DE
:1045F0008A52EB5A14A596B559CE55AD79CEFBDE4D
:1046000079CEF7BDD7BD38C63CE7FFFFFFFFDFFF20
:10461000FFFFFFFFFFFFFFFFFFFFFFFFFFFFFFFFAA
:10462000FFFFFFFFFFFFFFFFFFFFFFFFFFFFFFFF9A
:10463000FFFFFFFFFFFFDFFFDFFFFFFF96B5A631A4
:1046400028420842863145298210C3180000C73924
:10465000FBDEFFFFF7BD08422C6355AD79CED7BD19
:10466000F7BD38C6BAD69AD679CE18C618C6FBDEBC
:10467000FFFFFFFFBEF7FFFFFFFFFFFFFFFFFFFF93
:10468000FFFFFFFFFFFFFFFFFFFFFFFFFFFFFFFF3A
:10469000FFFFFFFFFFFFFFFFFFFFFFFFFFFF9AD6B8
:1046A000A63128420842863165294529E3182000B1
:1046B000E31875ADFFFF7DEFFFFF9294E739718C32
:1046C000F39CBAD696B596B538C6DBDEDBDE79CE7E
:1046D000F7BD38C61CE7DFFFFFFFFFFFFFFFFFFF4F
:1046E000FFFFFFFFFFFFFFFFFFFFFFFFFFFFFFFFDA
:1046F000FFFFFFFFFFFFFFFFFFFFFFFFFFFFFFFFCA
:104700001CE7CB5A2842C739C7396529A631652924
:1047100000004108D39CBEF7BEF7FFFFBEF79EF72F
:104720006D6B494ACF7B75AD9AD655AD38C659CE1B
:1047300079CEBAD6BAD638C6F7BDDBDEFFFFDFFFCB
:10474000DFFFFFFFFFFFFFFFFFFFFFFFFFFFFFFF99
:10475000FFFFFFFFFFFFFFFFFFFFFFFFFFFFFFFF69
:10476000FFFF7DEFEF7BC7398A52C739042108422A
:104770002421042141084D6BFFFFFFFF7DEFFFFF68
:104780007DEFFFFF59CE8A522C638E7338C6D7BD9A
:1047900018C6D7BD18C69AD6FBDE9AD618C679CEEB
:1047A0001CE7BEF7DFFFDFFFFFFFFFFFFFFFFFFF9D
:1047B000FFFFFFFFFFFFFFFFFFFFFFFFFFFFFFFF09
:1047C000FFFFFFFFFFFFF39C494A0842C7398631CC
:1047D0008631E318E3180000CB5ADBDEDFFFDFFF92
:1047E000FFFF9EF7FFFF9EF7FFFF75AD28422C638A
:1047F000AE739AD696B5D7BD18C659CE79CEDBDE44
:104800001CE79AD6D7BD9EF7BEF7DFFFFFFFFFFF7D
:10481000FFFFFFFFFFFFFFFFFFFFFFFFFFFFFFFFA8
:10482000DFFFFFFF7DEFFFFFF7BD494A494AA63191
:10483000C73945292421863100008631F7BDFFFFA5
:104840009EF7FFFFFFFFDFFFFFFFFFFFDFFFFFFF21
:104850004D6B8A524D6BAE7359CE96B579CED39CC3
:10486000EB5AEB5A75ADBEF738C659CE9EF7FFFF2F
:10487000BEF7FFFFFFFFFFFFDFFFFFFFFFFFFFFFB1
:104880009EF7FFFFFFFFBEF7FFFF18C68A522842C0
:10489000694AA63186314529084200004108F39C47
:1048A0007DEFFFFFDFFFFFFFFFFFBEF7FFFFDFFF33
:1048B000DFFF9EF7FFFF8A528A526D6B108459CE3C
:1048C000D7BD308496B596B59294BAD6FBDE18C69D
:1048D0005DEFFFFFFFFFFFFFFFFFFFFFFFFFFFFF9A
:1048E000FFFFFFFFFFFFFFFFDFFFBEF71CE7C7393A
:1048F0004529E73928426529C73924216108000084
:1049000030849EF7FFFFFFFFDFFFFFFFFFFFDFFFAA
:10491000FFFFDFFFBEF7FFFFFFFF9AD6E7392C63EB
:104920004D6BF7BD96B559CEBEF7DFFFBAD659CE5F
:10493000BEF738C63CE7FFFFFFFFFFFFBEF7BEF73D
:10494000FFFFFFFFFFFFDFFFFFFFFFFFDFFFFFFFB7
:10495000BAD6E31804210842A631E31845294529AF
:104960000000CB5ADBDEFFFFDFFFDFFFFFFFFFFFB3
:10497000FFFFFFFFFFFFDFFFFFFFDFFF5DEFFFFF39
:1049800055AD494A6D6BCF7B38C6D7BDFBDE3CE7E2
:1049900038C65DEF1CE79AD65DEFBEF7DFFFFFFF7D
:1049A000FFFFDFFFFFFFFFFFFFFFFFFF9EF7FFFFA0
:1049B000FFFFBEF7FFFFF39C652904210421652951
:1049C000C3180000452959CEBEF7FFFFDFFFFFFFE8
:1049D000FFFFDFFFFFFFFFFFDFFFFFFFFFFFDFFF47
:1049E000FFFFBEF7FFFFAE73694A1084F39C59CEF8
:1049F000D7BDD7BD59CE18C67DEFB6B53CE7FFFF92
:104A0000BEF7DFFFFFFFFFFFFFFFFFFFFFFFFFFF1F
:104A1000DFFFFFFFDFFFFFFFFFFFBEF734A5694A9F
:104A20008210821000002000B294BEF7FFFFFFFF4B
:104A3000FFFFFFFFFFFFDFFFFFFFFFFFFFFFDFFFC6
:104A4000FFFFFFFFDFFFFFFFDFFF1CE76D6BAA52D9
:104A5000B29475AD79CE59CE14A534A59294F39C39
:104A6000FBDEFFFFFFFFDFFFFFFFFFFFFFFFFFFF9B
:104A7000FFFFFFFFFFFFFFFF9EF7FFFF7DEFBEF78A
:104A8000FFFF9AD60C6341082000CF7BFFFFFFFF9A
:104A9000BEF7FFFFFFFFFFFFFFFFFFFFFFFFFFFF6F
:104AA000FFFFBEF7FFFFBEF7FFFFFFFFDFFFFFFFC8
:104AB0009AD6AA528A521084718C3084CF7B8A5243
:104AC0008A52F7BD7DEFFFFFFFFFFFFFFFFFFFFFF4
:104AD000FFFFFFFFFFFFFFFFBEF7FFFFFFFFBEF778
:104AE000FFFFFFFFBEF7DFFFDFFF718C694AFBDED0
:104AF000BEF7FFFFDFFFFFFFFFFFDFFFFFFFFFFF4F
:104B0000FFFFBEF7FFFFFFFFFFFF9EF7FFFFFFFF67
:104B1000BEF7FFFFFFFF38C62C63E739AA528A525F
:104B200028426D6B34A5FFFFFFFFFFFFDFFFFFFF94
:104B3000FFFFDFFFFFFFFFFFFFFFFFFFFFFFFFFFA5
:104B4000FFFFFFFFFFFFFFFFFFFFFFFFDFFF7DEF27
:104B50003CE79EF7FFFFFFFFDFFFFFFFFFFFFFFFC9
:104B6000FFFFFFFFFFFFFFFFFFFFFFFFFFFFFFFF55
:104B7000FFFFFFFFFFFFFFFFDFFFDFFFDBDE75ADA6
:104B80009294B29496B5DBDEBEF7FFFFFFFFFFFF06
:104B9000FFFFFFFFFFFFFFFFFFFFFFFFFFFFFFFF25
:104BA000FFFFFFFFFFFFFFFFFFFFFFFFFFFFFFFF15
:104BB000FFFFBEF79EF7DFFFFFFFFFFFDFFFFFFFF7
:104BC000FFFFFFFFFFFFFFFFFFFFFFFFFFFFFFFFF5
:104BD000FFFFFFFFFFFFFFFFFFFFFFFFDFFFFFFF05
:104BE000FFFFBEF79EF7BEF7DFFFFFFFFFFFFFFFF0
:104BF000FFFFFFFFFFFFFFFFFFFFFFFFFFFFFFFFC5
:104C0000FFFFFFFFFFFFFFFFFFFFFFFFFFFFFFFFB4
:104C1000FFFFBFF7FFFFFFFFFFFFFFFFFFFFFFFFEC
:104C2000FFFFFFFFBDFF9DF7FFFFDEFF9DF7FFFFCB
:104C3000DADEFBE6BADE7DF7FFFF9DFFDEFFDEFF7B
:104C40005CF7FFFFFFFFDFFFDFFF9FF7FFFFBFF70F
:104C5000FFFFFFFFFFFFFFFFFFFFFFFFFFFFFFFF64
:104C6000FFFFFFFFFFFFFFFFFFFFFFFFFFFFFFFF54
:104C7000FFFFFFFFFFFFFFFFFFFFDFF7FFFFFFFF6C
:104C8000DFFFDFFFFFFFDEFFFFFFFFFF1BE717C6B2
:104C9000B6B5D7BD75AD55ADB6BD54ADD3A475B5DC
:104CA00099DE9DFFFFFFDFFFFFFFDFFFFFFFFFFF3D
:104CB000FFFFBFF7DFFFFFFFFFFFFFFFFFFFFFFF6C
:104CC000FFFFFFFFFFFFFFFFFFFFFFFFFFFFFFFFF4
:104CD000FFFFFFFFFFFFFFFFFFFFFFFFDFF7DFF734
:104CE000FFFFFFFFFFFFFFFFFFFFFFFF7CEF78CE1F
:104CF000B6B538C6FBDE3CE7DFFFDFFFDFFF7DEF49
:104D00007DF7BADEB29CD2A49EFF9DF7FFFFFFFFA6
:104D1000DFFFDFFF9EF7BFFFFFFFFFFFFFFFFFFF8C
:104D2000FFFFFFFFFFFFFFFFFFFFFFFFFFFFFFFF93
:104D3000FFFFFFFFFFFFFFFFFFFFFFFFFFFFFFFF83
:104D4000DFF7FFFFFFFFFFFFFFFFFFFFDEFFFEFFBD
:104D5000F7BD38C63CE7FFFFFFFFFFFFFFFFDFF7B0
:104D6000FFFFFFFFDFFFFFFF1BE775B5919CFFFF14
:104D7000FFFF9DF73CEFFFFFFFFFFFFFBFF7FFFFC8
:104D8000FFFFFFFFFFFFFFFFFFFFFFFFFFFFFFFF33
:104D9000FFFFFFFFFFFFFFFFFFFFFFFFFFFFFFFF23
:104DA000FFFFFFFFFFFFFFFFFFFFDFFFFFFFFFFF33
:104DB000BEFFDADE95B57DEFFFFFFFFFBFF79EEF89
:104DC000FFFFFFFFFFFFDFFFBEF7FFFFFFFF9EF7C5
:104DD00013A599D6FEFFFEFFFFFFFFFFFFFFFFFFBA
:104DE000BFFFFFFFFFFFFFFFFFFFFFFFFFFFFFFF13
:104DF000FFFFFFFFFFFFFFFFFFFFFFFFFFFFFFFFC3
:104E0000FFFFFFFFFFFFFFFFFFFFFFFFDFFFFFFFD2
:104E1000DFFFDEFFFFFF38CE99D6FFFFFFFF5CE725
:104E2000BEF7FFFFFFFFFFFF9EEFFFFFFFFF5DEFFE
:104E30007DF7BEFFDADE74B57BEF5BEFFEFF9DF71B
:104E4000BDF7FFFFFFFFFFFFFFFFFFFFFFFFFFFFBC
:104E5000FFFFFFFFFFFFFFFFFFFFFFFFFFFFFFFF62
:104E6000FFFFFFFFFFFFFFFFFFFFDFFFFFFFDFFF92
:104E7000DFFFFFFFFBE679D6DEFF95BD7CF7DEFFA7
:104E8000DEFFFFFFFFFFFFFF7DEFBEF7FFFFFFFF2E
:104E9000DEFFFFFFFFFFDEFF78D694BDB4BD2E849A
:104EA0003AE7FEFFFEFFFEFF9DF7FFFFFFFFFFFF5C
:104EB000FFFFFFFFFFFFFFFFFFFFFFFFFFFFFFFF02
:104EC000FFFFFFFFFFFFFFFFFFFFFFFFFFFFFFFFF2
:104ED000FFFFBEFFFFFFFFFF95BD308C17CE909CFC
:104EE000D9E6F5C516C6DEFFBDFF9DF7FFFFFFFF44
:104EF000FFFFDEFFFFFF3BEF4F94895A6C7BED8392
:104F0000AF9CCC83FDFFFEFFDEFF5CEFFFFFFFFFEA
:104F1000FFFFFFFFFFFFFFFFFFFFFFFFFFFFFFFFA1
:104F2000FFFFFFFFFFFFFFFFFFFFFFFFFFFFFFFF91
:104F3000FFFFDFFFFFFFBEF7FFFFFFFF9DFF0B6BD4
:104F400013AD12B54A7B6B7B2A738C7BD9E6FEFFCF
:104F5000FAE678DE57D6DEFF9DFFEE8BC541C96AC3
:104F60008C83CC83B3BD97DEF1A4B8DEFEFFBDFF1A
:104F7000FFFFFFFFFFFFFFFFFFFFFFFFFFFFFFFF41
:104F8000FFFFFFFFFFFFFFFFFFFFFFFFFFFFFFFF31
:104F9000FFFFFFFFFFFFFFFFFFFFBEFFDEFF9DFFE5
:104FA000FAE6AD836C7B93C5D4CD2D948FA42A7380
:104FB0000A6B1AEF3BF733B5B4C557D64F9CA441E3
:104FC000E551EA72C96A6E94D3C5FDFFCD830A6BC1
:104FD00078D6BDFFFFFFFFFFFFFFFFFFFFFFFFFFD3
:104FE000FFFFFFFFFFFFFFFFFFFFFFFFFFFFFFFFD1
:104FF000FFFFFFFFFFFFFFFFFFFFFFFF7DEFDEFF74
:10500000FFFF95BDC96248524B7B15D6FCFF52BDD0
:105010006EA4E96A665A77DEF9EE5BFF7BFFDDFF7F
:1050200073BD26520231E230E5492D94FCFF7BFF2F
:105030004B73A95A8D7B9DF7BDF7FFFFFFFFFFFF65
:10504000FFFFFFFFFFFFFFFFFFFFFFFFFFFFFFFF70
:10505000FFFFFFFFFFFFFFFFFFFFFFFFFFFFFFFF60
:10506000BEFFDEFF34ADEB6A4752A962475A2D9C62
:105070007AFFD8EEAC8B2A736F9C32B5F1AC909C62
:10508000CD8312ADB5C573BDCD8B8441E5492231C9
:105090008B7BF1ACE96A8C7B4B73F6C5FFFFFFFF9E
:1050A000FFFFFFFFFFFFFFFFFFFFFFFFFFFFFFFF10
:1050B000FFFFFFFFFFFFFFFFFFFFFFFFFFFFFFFF00
:1050C000FFFFFFFFFFFFBEFFEA62064A2B730A6B7A
:1050D000A862A86A76DEFDFF93BD32B536CED1A4B4
:1050E000D1A4D1A40F8C8D7BEA624C738C7B685A5F
:1050F000685AA4410008401823312752895A38CEF3
:10510000BEFFFFFFFFFFFFFFFFFFFFFFFFFFFFFFF0
:10511000FFFFFFFFFFFFFFFFFFFFFFFFFFFFFFFF9F
:10512000FFFFFFFFFFFFFFFF9DF73CEF895AC641DE
:10513000A962E649A962C549AC83D0A412AD33ADDA
:10514000909C2F8C13A5B19495B5B5B533ADD29C79
:1051500071942F8CEE830A73A9620331075248526F
:1051600048521CEFFFFFDFFFFFFFFFFFFFFFFFFFC6
:10517000FFFFFFFFFFFFFFFFFFFFFFFFFFFFFFFF3F
:10518000FFFFFFFFFFFFFFFFFFFFDFFFFFFF1BEF43
:10519000EA62C541EA6A475A84412A732A6B2A6B3C
:1051A000B19C74B533A5D6BD58CEBAD658C655A550
:1051B00058C6DBDE38C659CE95BD74BD2F942C730E
:1051C000CA6A14B5FFFF3DF77DF7DFFFFFFFFFFF62
:1051D000FFFFFFFFFFFFFFFFFFFFFFFFFFFFFFFFDF
:1051E000FFFFFFFFFFFFFFFFFFFFFFFFFFFFDEFFF0
:1051F000FFFFFEFFF6C5A9626439C96A4F940E8CA1
:10520000EE83D19C74ADD6BDFADE3CE7FBDEBAD6A8
:10521000DBD676AD7ACEBACE18BE3CE738C617CE0E
:1052200038D614AD0F8C8A5A96BDFFFFDFFFFFFF03
:10523000FFFFFFFFFFFFFFFFFFFFFFFFFFFFFFFF7E
:10524000FFFFFFFFFFFFFFFFFFFFFFFFDFFFDFFFAE
:10525000FFFFDEFFDDFFFDFF93BDA862CD83B4C578
:10526000F2AC4C6BB6B575B579D6FBDE38C63CE70B
:105270001CDFFCDE18BEB7AD5284FCD61DDFDCD6C9
:105280001DDFD49CF59CDCDE76ADB3940C63139DDE
:10529000FFFFDFFFBEF7FFFFFFFFBEF7FFFFDFF7F8
:1052A000FFFFFFFFFFFFFFFFFFFFFFFFFFFFFFFF0E
:1052B000FFFFFFFFFFFFFEFFFDFF15CECC834E94E7
:1052C00097DE16D68D7B7194B6B5DBDE96B5D7BD6D
:1052D000FFFFDBDE5DE77EEF117CF59C359D19BE9F
:1052E000BCCE5EE7B8AD9CCE3AC6D8B51DDF35A5BD
:1052F00051848E6B38BEFFFFFFFFFFFFFFFFDFFF14
:10530000FFFFBFF7FFFFFFFFFFFFFEFFFFFFFFFFF6
:10531000FFFFFFFFFFFFFFFFFEFFDDFF7BEFD09CE6
:105320008B73F5C57BF7B4C5CE83B6BDDADE3CE73B
:10533000BAD6F8BDDBD618C6DBD6DFF7159DB49418
:10534000117CB8AD3EDFDDD6906B3AC6FDD6DDD61A
:105350007AC69ACE76AD928C4D631BDFFFFFFFFFBE
:10536000FFFFFFFFFFFFBFF7FFFFFFFFFFFFFFFF95
:10537000FFFFFFFFDFFFDFFFDFFFDFFFDEFF7CF769
:1053800094BDED8331ADF9E6F5CD909C54B538CEA2
:10539000BAD69AD6FFFF18BE3184928C9BD63DE7D1
:1053A0005AC6B7ADB38C9BCEFFF71DDF5284F59480
:1053B000BFEF3EDFFDDE39C6DBD675AD0C5BF39C7F
:1053C000DEF7FFFFDFF7FFFFDFFFDFFFFFFFFFFF7E
:1053D000FFFFFEFFFFFFFFFFDFFFBFF7DFFFFFFF66
:1053E000FFFFFAE66B736B7397DED9E6909C7094BF
:1053F00058CE3CE79AD65DEFFFFF18C6D394928C47
:10540000FCDE5EE7DCD61DDF1DDF5EE7FDDEFDDED8
:1054100019BE3ABE5FE7FDDE1DDFBBD6D7B596AD40
:10542000D3940C5B79CEFFFFFFFFFFFFFFFFFFFF71
:10543000FFFFFFFFFFFFFEFFFFFFFFFFFFFFDFFF9D
:10544000FFFFFFFFFFFFF2A467524E9419EF52B522
:10545000AD7B33AD99DEBAD67DEF3DE7FCDE39C6D4
:1054600076AD55A5F073F8BD5EE73AC697ADDCD6CC
:10547000DCD69BCEFDD67FE7DCD6DCD6359D9BCE39
:10548000F49C39C6F7B50C5BF39CFFFFFFFFDFFF11
:10549000FFFFFFFFDFFFFFFFFFFFFFFFFFFFFFFF3C
:1054A000FFFFFFFFFFFFBEFF3CEFC962A85AB4BD7C
:1054B000B8DE8C738C7317CE58CE1CE7DFF71CDF79
:1054C000DBD67EEFFCDE7EEFF0738B4A9BCE369D03
:1054D000117C9BCE9FEF1DDF9FEFDCD67FEF19BEC7
:1054E000B3945284DBD67ACE59C6928C4D633CE796
:1054F000FFFFDEF7FFFFFFFFDFFFFFFFFFFFFFFF05
:10550000FFFFFFFFDFFFFFFFFFFF5DF778D6274AB2
:105510002A6B15C6F5C5E962EE8358D696B579CEE5
:10552000317C76AD728459C67EEF1DDF59C687295E
:1055300076A5DCD6FCD6DCD6DCD61DDFBCD69BCE71
:105540007EE7DCD65284728C1DDF1CDF7ACEF8BD7C
:10555000494239C6FFFFBEF7FFFFFFFFFFFFFFFF16
:10556000FFFFFFFFDEF7FFFFFFFFFFFFFFFFFFFF74
:10557000919C84396F94D8DE2E8C474AD19C99D661
:105580001CE79ACE1074AF73928CB7ADFCDE3DDF92
:105590007EE73284E9395EE73DDFFCD6DCD67EE784
:1055A000DCD63EDF1DDF9BCE97AD56A539C69ACE21
:1055B000BBD618BE8E6B5184FFFFFFFFDEF7FFFFE7
:1055C000FFFFFFFFFFFFFFFFDFFFFFFFFFFFBFFF4B
:1055D000BFFFBEFFCE83064AD1A497DECD7BA95282
:1055E00054AD9AD61CE71CDF7284CF6B7284D8B599
:1055F0003DDF1DDFDCD6F9BD872976A5BFEFDCD600
:105600001DDFFCD69BCE3DDFFCDEBBD65AC69BCE53
:105610007BCEBBD65AC618BEF07BEF7BDFF7FFFF11
:10562000DEFFFFFFFFFFFFFFFFFFFFFFFFFFFFFFAB
:10563000FFFFDFFFBFFF5DF70B6B685A12ADF5C5CB
:10564000E962A95A95B59ACEFCDE7EE739BE39BE2D
:105650007BC6FCD67EE73DDF1DDF9FEFB073EC52CB
:105660001DDFBCD63DE75EE77FEFF8BD18BE19BE73
:1056700039BE9BCE76ADBBD6BBD639C693946D6B87
:10568000BEF7FFFFDFFFFFFFFFFFFFFFFFFFFFFF93
:10569000FFFFFFFFFFFFFFFFDFFF3CF7895A675A5D
:1056A00012AD52B5474A0B6358C6BBD61DDFFCD6B8
:1056B0003DDF9FEF7FE71DD7FCD6FCD6FCD67FE70A
:1056C0005AC6C410159D9FEF5EE77BCE97AD7AC694
:1056D0001CDF7EEF5EE79BCE4E63B394F49C5AC60C
:1056E00035A50C5B9EEFFFFFFFFFFFFFFFFFFFFFF6
:1056F000FFFFFFFFFFFFFFFFDFFFDFFFDFFF1CF705
:105700000752C549D1A432AD474A8D73BAD6BBD62C
:10571000BCCE97ADBBCE1DD7FCCEDCCE1DD71DDFDA
:10572000FCD6FDD6FFF78F6B317CD4948F6BAF73B3
:10573000B394317C5184107C8F6B0D5B2621728C6D
:10574000F9BD7ACE56A52D63BEF7FFFFFFFFFFFF21
:10575000FFFFFFFFFFFFFFFFFFFFFFFFBFFFBFFFD9
:10576000DFFF1BEFC64923316F9C11A506420B6377
:10577000F7BD97AD159D6E5BD8ADFDD61DD73DD756
:105780003DDF5EE71DD75EDF97ADD4943284159D73
:1057900056A5B39456A5B7B5F8B539C65AC65AC674
:1057A000D4943AC6DCD67ACE15A5CF73DFF7FFFFC7
:1057B000FEFFFFFFFFFFFFFFFFFFFFFFFFFFFFFFFA
:1057C000BFFFBFFFDFFF3CF7E649A120ED8BD19C77
:1057D000A539284255A556A5F594AC4AF9B53EDF42
:1057E0003EDF1DD7DCCEFCD67AC6738452845AC6FF
:1057F0005AC65EE7BFF73EE77FEF5DE73DDF3DDF7F
:105800003DDF3EE7BCD6FDDEFDDE9BCEB394939438
:10581000FFFFFFFFDEFFFFFFFFFFFFFFFFFFFFFFB9
:10582000FFFFFFFFBFFFDFFFDFFF9DFF485A80182C
:10583000AD83B09C84310742D7BDBBD6BBCEF494B8
:105840005EDF3EDFBBCEFDD63DDF1DDF19BE19BEDC
:10585000DFF7DCD6D8B51DDF9BCE1DDFDCD61CDF25
:105860001CDF5DE73DDF1DDF3DDFBCD6BBD69BCE39
:10587000728C35A5FFFFFFFFDEFFFFFFFFFFFFFF7D
:10588000FFFFFFFFFFFF9EFFFFFFBFFFFFFFDEFFEA
:10589000EE836010A95AB19C85318531B6BD7ACEB0
:1058A0001DE7FDDEFDDEBCD61DDFBCD6FDDEDCD691
:1058B0001DDFFDDEFCDE1DDF77AD3DDFFCDEFCD64F
:1058C0001DDF1DD77EE7FCD6B7AD159D3DDFDCD6CD
:1058D000DBD618BE718C9ACEFFFFFFFFFFFFFFFFE4
:1058E000FFFFFFFFFFFFDFFFFFFFBFFFFFFFDEFF49
:1058F000DEFFFFFF54AD2329C95A13A507428110CB
:10590000B29CFBE6BBDEFCDE5FEF3EE77FEF1DE710
:10591000FDDEFDDEFDDE1DDF1DDFFCDED8B51DDF9B
:105920003DE75EE71DDF1DD75EDF9FE7D06B0C53C1
:105930001CDF7AC6FBD696AD149D1CE7FFFFBEF7B1
:10594000FFFFFFFFFFFFFFFFFFFFDFFFFFFFBFFFC7
:10595000FFFFFFFFDEFFFFFFFAE6A95A0B6354AD1E
:105960006D7381108D73FBE67ACEDCDEF9BD938C0E
:10597000B8B51DE7FDDE1DE7BCD6FDDEFDDE7AC64F
:10598000F8B59BCE1CD77EE7FCD65EDF9BC61CD746
:105990009384AF6B18B6149D38BE149D18BEDFFFFC
:1059A000FFFF9DF7FFFFFFFFDEFFFFFFFFFFDFFFB2
:1059B000FFFFDFFFFFFFFFFFDEFFFFFFFEFFD19CCA
:1059C0008C73D19C13A5484AEA6217CE79D69FF70B
:1059D00016A58C52738C3EE71DDF3EE71DDF1DDFF1
:1059E000DCD639BE7AC65AC6BBCE5EE7FCD6BFEF60
:1059F0003DDF5DDFBFEF7EE7DBD659C67ACE76AD01
:105A00001CDFFFFFDFFFBEF7FFFFFFFFFFFFFFFF12
:105A1000FFFFFFFFFFFFDFFFDFFFFFFFDEFFDEFF18
:105A2000FEFFB9DE0E84CD7B94B57094A95A919C8B
:105A3000BADEB7BDF59C8F6B159DFDDEDCD6DCD6DE
:105A40003DDF3EDFFDD6DCD63EDF1DD7FCD63DDF99
:105A50003DDF9384D7ADBBCEDCD6FCD6DBD67ACE89
:105A6000B7B59ACEDEF7FFFFDFFFFFFFFFFFFFFFB7
:105A7000FFFFFFFFFFFFFFFFFFFFDFFFDFFFFFFF76
:105A8000FEFFBDF7DEFFDDFF12A56B73D19C32ADCB
:105A90004B6BAC7B58CE9294D8BDB8B53AC6DCD629
:105AA000DCD6159DD4943DDF1DD79FE7FDD63EDFA4
:105AB0005EE71DD71DD78E63B38C7EE7BBCE9ACE33
:105AC000FBD6F8BD38C69EEFFFFFDEFFFFFFFFFFEE
:105AD000DEFFFFFFFFFFFFFFFFFFFFFFFFFFFFFFF7
